{
  "contractName": "SupplyChainManagement",
  "abi": [
    {
      "inputs": [],
      "name": "owner",
      "outputs": [
        {
          "internalType": "address",
          "name": "",
          "type": "address"
        }
      ],
      "stateMutability": "view",
      "type": "function",
      "constant": true
    },
    {
      "inputs": [],
      "name": "getRole",
      "outputs": [
        {
          "internalType": "string[2]",
          "name": "",
          "type": "string[2]"
        }
      ],
      "stateMutability": "view",
      "type": "function",
      "constant": true
    },
    {
      "inputs": [
        {
          "internalType": "address",
          "name": "_account",
          "type": "address"
        },
        {
          "internalType": "string",
          "name": "_name",
          "type": "string"
        },
        {
          "internalType": "string",
          "name": "_partType",
          "type": "string"
        }
      ],
      "name": "addSupplier",
      "outputs": [],
      "stateMutability": "nonpayable",
      "type": "function"
    },
    {
      "inputs": [
        {
          "internalType": "address",
          "name": "_account",
          "type": "address"
        },
        {
          "internalType": "string",
          "name": "_name",
          "type": "string"
        }
      ],
      "name": "addManufacturer",
      "outputs": [],
      "stateMutability": "nonpayable",
      "type": "function"
    },
    {
      "inputs": [
        {
          "internalType": "string",
          "name": "_name",
          "type": "string"
        }
      ],
      "name": "addCustomer",
      "outputs": [],
      "stateMutability": "nonpayable",
      "type": "function"
    },
    {
      "inputs": [
        {
          "internalType": "uint256",
          "name": "_limit",
          "type": "uint256"
        }
      ],
      "name": "set_limit",
      "outputs": [],
      "stateMutability": "nonpayable",
      "type": "function"
    },
    {
      "inputs": [
        {
          "internalType": "uint256",
          "name": "quantity",
          "type": "uint256"
        }
      ],
      "name": "purchaseTyre",
      "outputs": [],
      "stateMutability": "payable",
      "type": "function",
      "payable": true
    },
    {
      "inputs": [
        {
          "internalType": "uint256",
          "name": "quantity",
          "type": "uint256"
        },
        {
          "internalType": "uint256",
          "name": "price",
          "type": "uint256"
        }
      ],
      "name": "place_bid",
      "outputs": [],
      "stateMutability": "payable",
      "type": "function",
      "payable": true
    },
    {
      "inputs": [],
      "name": "showbid",
      "outputs": [
        {
          "internalType": "string[6]",
          "name": "",
          "type": "string[6]"
        }
      ],
      "stateMutability": "view",
      "type": "function",
      "constant": true
    },
    {
      "inputs": [],
      "name": "makeProduct",
      "outputs": [],
      "stateMutability": "nonpayable",
      "type": "function"
    },
    {
      "inputs": [
        {
          "internalType": "uint256",
          "name": "_price",
          "type": "uint256"
        }
      ],
      "name": "setCarPrice",
      "outputs": [],
      "stateMutability": "nonpayable",
      "type": "function"
    },
    {
      "inputs": [
        {
          "internalType": "uint256",
          "name": "price",
          "type": "uint256"
        }
      ],
      "name": "setPartPrice",
      "outputs": [],
      "stateMutability": "nonpayable",
      "type": "function"
    },
    {
      "inputs": [
        {
          "internalType": "string",
          "name": "brand",
          "type": "string"
        }
      ],
      "name": "getCarPrice",
      "outputs": [
        {
          "internalType": "string",
          "name": "",
          "type": "string"
        }
      ],
      "stateMutability": "view",
      "type": "function",
      "constant": true
    },
    {
      "inputs": [],
      "name": "getPartPrice",
      "outputs": [
        {
          "internalType": "string",
          "name": "",
          "type": "string"
        }
      ],
      "stateMutability": "view",
      "type": "function",
      "constant": true
    },
    {
      "inputs": [
        {
          "internalType": "string",
          "name": "brand",
          "type": "string"
        }
      ],
      "name": "purchaseCar",
      "outputs": [],
      "stateMutability": "payable",
      "type": "function",
      "payable": true
    },
    {
      "inputs": [],
      "name": "getcarID",
      "outputs": [
        {
          "internalType": "string",
          "name": "",
          "type": "string"
        }
      ],
      "stateMutability": "view",
      "type": "function",
      "constant": true
    },
    {
      "inputs": [
        {
          "internalType": "uint256",
          "name": "id",
          "type": "uint256"
        }
      ],
      "name": "verify",
      "outputs": [
        {
          "internalType": "string[6]",
          "name": "",
          "type": "string[6]"
        }
      ],
      "stateMutability": "view",
      "type": "function",
      "constant": true
    },
    {
      "inputs": [
        {
          "internalType": "address",
          "name": "_addr",
          "type": "address"
        }
      ],
      "name": "addressToString",
      "outputs": [
        {
          "internalType": "string",
          "name": "",
          "type": "string"
        }
      ],
      "stateMutability": "pure",
      "type": "function",
      "constant": true
    }
  ],
  "bytecode": "0x6080604052600080546001600160a01b03191633178155600f5534801561002557600080fd5b506146b7806100356000396000f3fe6080604052600436106101095760003560e01c80638a8e0a2e11610095578063be02842611610064578063be028426146102b2578063c4bdeb99146102d2578063dd5aaf55146102e5578063f60e61e714610305578063fde081741461031857600080fd5b80638a8e0a2e146102275780638c09e409146102475780638da5cb5b1461025a578063b5fabfda1461029257600080fd5b806362975cdf116100dc57806362975cdf1461019057806363b340d5146101b257806364813de8146101d257806372e748a4146101f25780638753367f1461020757600080fd5b806303dd3d811461010e578063067048331461013057806320d749c91461015b5780635e57966d14610170575b600080fd5b34801561011a57600080fd5b5061012e61012936600461400d565b61033a565b005b34801561013c57600080fd5b5061014561040a565b604051610152919061409a565b60405180910390f35b34801561016757600080fd5b5061014561055a565b34801561017c57600080fd5b5061014561018b3660046140d0565b61057b565b34801561019c57600080fd5b506101a5610766565b60405161015291906140eb565b3480156101be57600080fd5b5061012e6101cd366004614138565b61082d565b3480156101de57600080fd5b506101456101ed36600461400d565b6108ab565b3480156101fe57600080fd5b5061012e6108ca565b34801561021357600080fd5b506101a5610222366004614138565b610c4d565b34801561023357600080fd5b5061012e610242366004614151565b6110c3565b61012e61025536600461400d565b611213565b34801561026657600080fd5b5060005461027a906001600160a01b031681565b6040516001600160a01b039091168152602001610152565b34801561029e57600080fd5b5061012e6102ad36600461419f565b61146d565b3480156102be57600080fd5b5061012e6102cd366004614138565b6115e0565b61012e6102e0366004614213565b6117ac565b3480156102f157600080fd5b5061012e610300366004614138565b611a6f565b61012e610313366004614138565b611ac8565b34801561032457600080fd5b5061032d61226b565b6040516101529190614235565b6040805160608101825282815233602082015290810160009052336000908152600560205260409020815181906103719082614311565b5060208201516001820180546001600160a01b039092166001600160a01b03198316811782556040850151926001600160a81b03191617600160a01b8360038111156103bf576103bf614276565b021790555090505033600d826040516103d891906143d1565b90815260405190819003602001902080546001600160a01b03929092166001600160a01b031990921691909117905550565b336000818152600460205260408120805460609392919061042a9061428c565b80601f01602080910402602001604051908101604052809291908181526020018280546104569061428c565b80156104a35780601f10610478576101008083540402835291602001916104a3565b820191906000526020600020905b81548152906001019060200180831161048657829003601f168201915b505050505090506040516020016104b9906143ed565b60405160208183030381529060405280519060200120816040516020016104e091906143d1565b60405160208183030381529060405280519060200120036105455761053e60026000600d604051610510906143fd565b9081526040805160209281900383019020546001600160a01b031683529082019290925201600020546124d8565b9250505090565b61053e60026000600d6040516105109061440c565b336000908152600c6020526040902054606090610576906124d8565b905090565b604080518082018252601081526f181899199a1a9b1b9c1cb0b131b232b360811b60208201528151603380825260608281019094526001600160a01b0385169291600091602082018180368337019050509050600360fc1b816000815181106105e6576105e661441c565b60200101906001600160f81b031916908160001a905350600f60fb1b816001815181106106155761061561441c565b60200101906001600160f81b031916908160001a90535060005b601481101561075d578260048561064784600c614448565b602081106106575761065761441c565b1a60f81b6001600160f81b031916901c60f81c60ff168151811061067d5761067d61441c565b01602001516001600160f81b0319168261069883600261445b565b6106a3906002614448565b815181106106b3576106b361441c565b60200101906001600160f81b031916908160001a90535082846106d783600c614448565b602081106106e7576106e761441c565b825191901a600f169081106106fe576106fe61441c565b01602001516001600160f81b0319168261071983600261445b565b610724906003614448565b815181106107345761073461441c565b60200101906001600160f81b031916908160001a905350806107558161447a565b91505061062f565b50949350505050565b61076e613eb4565b6040805160c08101909152601160066000835b828210156108245783820180546107979061428c565b80601f01602080910402602001604051908101604052809291908181526020018280546107c39061428c565b80156108105780601f106107e557610100808354040283529160200191610810565b820191906000526020600020905b8154815290600101906020018083116107f357829003601f168201915b505050505081526020019060010190610781565b50505050905090565b60023360009081526003602081905260409091206004015460ff169081111561085857610858614276565b146108995760405162461bcd60e51b815260206004820152600c60248201526b2737ba1029bab8383634b2b960a11b60448201526064015b60405180910390fd5b33600090815260026020526040902055565b60606108c460016000600d8560405161051091906143d1565b92915050565b6001336000908152600460208190526040909120015460ff1660038111156108f4576108f4614276565b146109115760405162461bcd60e51b815260040161089090614493565b336000908152600460205260408120805461092b9061428c565b80601f01602080910402602001604051908101604052809291908181526020018280546109579061428c565b80156109a45780601f10610979576101008083540402835291602001916109a4565b820191906000526020600020905b81548152906001019060200180831161098757829003601f168201915b5050336000908152600460205260408120600381015460029091015495965090941192506109e791505057336000908152600460205260409020600201546109fb565b336000908152600460205260409020600301545b905060008060005b83811015610c4657600885604051610a1b91906143d1565b90815260200160405180910390206001600887604051610a3b91906143d1565b90815260405190819003602001902054610a5591906144bd565b81548110610a6557610a6561441c565b90600052602060002001549250600785604051610a8291906143d1565b90815260200160405180910390206001600787604051610aa291906143d1565b90815260405190819003602001902054610abc91906144bd565b81548110610acc57610acc61441c565b90600052602060002001549150600885604051610ae991906143d1565b9081526020016040518091039020805480610b0657610b066144d0565b60019003818190600052602060002001600090559055600785604051610b2c91906143d1565b9081526020016040518091039020805480610b4957610b496144d0565b60019003818190600052602060002001600090559055600a85604051610b6f91906143d1565b908152604080519182900360209081018320600f805482546001818101855560009485528585209091019190915560a08601855290548086528584018b81528686018a905260608701899052336080880152908352600b9093529290208351815590519091820190610be19082614311565b506040820151600282015560608201516003820155608090910151600490910180546001600160a01b0319166001600160a01b03909216919091179055600f8054906000610c2e8361447a565b91905055508080610c3e9061447a565b915050610a03565b5050505050565b610c55613eb4565b610c5d613eb4565b6000838152600b6020526040902060040154336001600160a01b0390911603610ca05760405180606001604052806023815260200161465f602391398152610cd7565b60408051808201909152601a81527f436172206f776e657273686970206e6f74207665726966696564000000000000602082015281525b6000838152600b602052604081206001018054610cf39061428c565b80601f0160208091040260200160405190810160405280929190818152602001828054610d1f9061428c565b8015610d6c5780601f10610d4157610100808354040283529160200191610d6c565b820191906000526020600020905b815481529060010190602001808311610d4f57829003601f168201915b5050505050905060006040518060400160405280600c81526020016b436172206272616e6420697360a01b81525090508082604051602001610daf9291906144e6565b60408051808303601f190181529181526020808601929092526000878152600b835281812060028101546003918201548184526009909552929091200154909190336001600160a01b0390911603610e245760405180606001604052806024815260200161463b602491396040860152610e5c565b604080518082018252601b81527f54797265204f776e657273686970206e6f7420766572696669656400000000006020820152908601525b60008281526009602052604090206001018054610e789061428c565b80601f0160208091040260200160405190810160405280929190818152602001828054610ea49061428c565b8015610ef15780601f10610ec657610100808354040283529160200191610ef1565b820191906000526020600020905b815481529060010190602001808311610ed457829003601f168201915b505050505093506040518060400160405280600d81526020016c54797265206272616e6420697360981b81525092508284604051602001610f339291906144e6565b60408051808303601f190181529181526060870191909152600082815260096020522060030154336001600160a01b0390911603610f8e57604051806060016040528060288152602001614613602891396080860152610fc8565b60408051808201909152601f81527f43617220626f6479206f776e657273686970206e6f7420766572696669656400602082015260808601525b60008181526009602052604090206001018054610fe49061428c565b80601f01602080910402602001604051908101604052809291908181526020018280546110109061428c565b801561105d5780601f106110325761010080835404028352916020019161105d565b820191906000526020600020905b81548152906001019060200180831161104057829003601f168201915b505050505093506040518060400160405280601181526020017043617220626f6479206272616e6420697360781b815250925082846040516020016110a39291906144e6565b60408051808303601f1901815291905260a0860152509295945050505050565b6000546001600160a01b031633146111095760405162461bcd60e51b81526020600482015260096024820152682737ba1027bbb732b960b91b6044820152606401610890565b6040805160a0810182528281526001600160a01b03841660208083018290526000838501819052606084018190526001608085015291825260049052919091208151829190819061115a9082614311565b5060208201518160010160006101000a8154816001600160a01b0302191690836001600160a01b03160217905550604082015181600201556060820151816003015560808201518160040160006101000a81548160ff021916908360038111156111c6576111c6614276565b021790555090505082600d836040516111df91906143d1565b90815260405190819003602001902080546001600160a01b03929092166001600160a01b0319909216919091179055505050565b600033600090815260056020526040902060010154600160a01b900460ff16600381111561124357611243614276565b1461127f5760405162461bcd60e51b815260206004820152600c60248201526b2737ba1021bab9ba37b6b2b960a11b6044820152606401610890565b60008060008060016000600d8760405161129991906143d1565b9081526040805160209281900383019020546001600160a01b031683529082019290925201600020546112d490670de0b6b3a764000061445b565b905060003490506000600a876040516112ed91906143d1565b9081526040519081900360200190205411801561130a5750818110155b1561145b5761131982876125db565b600061132583836144bd565b111561133e5761133e61133883836144bd565b33612609565b600a8660405161134e91906143d1565b90815260200160405180910390206001600a8860405161136e91906143d1565b9081526040519081900360200190205461138891906144bd565b815481106113985761139861441c565b90600052602060002001549450600a866040516113b591906143d1565b90815260200160405180910390208054806113d2576113d26144d0565b60008281526020808220830160001990810183905590920190925533808352600c82526040808420899055888452600b83528084206004810180546001600160a01b031990811685179091556002820154600392830154818852600990965283872083018054831686179055858752929095200180549094169091179092559094509250611465565b6114653433612609565b505050505050565b6000546001600160a01b031633146114b35760405162461bcd60e51b81526020600482015260096024820152682737ba1027bbb732b960b91b6044820152606401610890565b60006040518060a00160405280848152602001856001600160a01b0316815260200183815260200160008152602001600260038111156114f5576114f5614276565b90526001600160a01b03851660009081526003602052604090208151919250829181906115229082614311565b5060208201516001820180546001600160a01b0319166001600160a01b039092169190911790556040820151600282019061155d9082614311565b506060820151816003015560808201518160040160006101000a81548160ff0219169083600381111561159257611592614276565b021790555090505083600d846040516115ab91906143d1565b90815260405190819003602001902080546001600160a01b03929092166001600160a01b031990921691909117905550505050565b60023360009081526003602081905260409091206004015460ff169081111561160b5761160b614276565b146116475760405162461bcd60e51b815260206004820152600c60248201526b2737ba1029bab8383634b2b960a11b6044820152606401610890565b336000908152600360208190526040909120018054908290556117a861166d82846144bd565b336000908152600360205260409020600201805461168a9061428c565b80601f01602080910402602001604051908101604052809291908181526020018280546116b69061428c565b80156117035780601f106116d857610100808354040283529160200191611703565b820191906000526020600020905b8154815290600101906020018083116116e657829003601f168201915b505033600090815260036020526040902080549093506117259250905061428c565b80601f01602080910402602001604051908101604052809291908181526020018280546117519061428c565b801561179e5780601f106117735761010080835404028352916020019161179e565b820191906000526020600020905b81548152906001019060200180831161178157829003601f168201915b50505050506126b0565b5050565b6001336000908152600460208190526040909120015460ff1660038111156117d6576117d6614276565b146117f35760405162461bcd60e51b815260040161089090614493565b336000908152600460205260408082209051600e9161181191614522565b908152604051908190036020019020600201546001600160a01b03161461183757600080fd5b611841818361445b565b61185390670de0b6b3a764000061445b565b34101561185f57600080fd5b61186b60116000613edb565b611875818361445b565b61188790670de0b6b3a764000061445b565b3411156118b7576118b761189b828461445b565b6118ad90670de0b6b3a764000061445b565b61133890346144bd565b601080549060006118c78361447a565b9091555050604080516060810182528281526020808201859052338284018190526000908152600490915282902091519091600e916119069190614522565b908152604080516020928190038301812084518155928401516001840155920151600290910180546001600160a01b0319166001600160a01b039092169190911790556000906004908290600d9061195d906143ed565b9081526040805160209281900383019020546001600160a01b031683529082019290925201600020600201541180156119d35750600060046000600d6040516119a590614598565b9081526040805160209281900383019020546001600160a01b03168352908201929092520160002060020154115b80156119e157506010546002145b156117a8576119ee6127a3565b6119f6613d86565b600e604051611a04906143ed565b9081526040519081900360200181206000808255600182015560020180546001600160a01b0319169055600e90611a3a90614598565b908152604051908190036020019020600080825560018201819055600290910180546001600160a01b03191690556010555050565b6001336000908152600460208190526040909120015460ff166003811115611a9957611a99614276565b14611ab65760405162461bcd60e51b815260040161089090614493565b33600090815260016020526040902055565b6001336000908152600460208190526040909120015460ff166003811115611af257611af2614276565b14611b0f5760405162461bcd60e51b815260040161089090614493565b6000604051602001611b20906143ed565b60408051601f19818403018152828252805160209182012033600090815260048352929092209192611b53929101614522565b6040516020818303038152906040528051906020012003611eee5760008260036000600d604051611b83906143fd565b9081526040805160209281900383019020546001600160a01b0316835290820192909252016000206003015411611bf75760036000600d604051611bc6906143fd565b9081526040805160209281900383019020546001600160a01b03168352908201929092520160002060030154611bf9565b825b9050600060026000600d604051611c0f906143fd565b9081526040805160209281900383019020546001600160a01b031683529082019290925201600020549050611c44818361445b565b925034611c5984670de0b6b3a764000061445b565b935083811015611ca25760405162461bcd60e51b8152602060048201526014602482015273496e73756666696369656e742062616c616e636560601b6044820152606401610890565b8260036000600d604051611cb5906143fd565b9081526040805160209281900383019020546001600160a01b03168352908201929092520160009081206003018054909190611cf29084906144bd565b92505081905550611d1e846040518060400160405280600381526020016226a92360e91b8152506125db565b6000611d2a85836144bd565b1115611d3d57611d3d61133885836144bd565b60005b83811015611ebd57600060016006604051611d5a906143fd565b90815260405190819003602001902054611d7491906144bd565b33600090815260046020526040908190209051919250600891611d979190614522565b90815260200160405180910390206006604051611db3906143fd565b90815260200160405180910390208281548110611dd257611dd261441c565b60009182526020808320909101548354600181018555938352908220909201919091556040513391600991600690611e09906143fd565b90815260200160405180910390208481548110611e2857611e2861441c565b9060005260206000200154815260200190815260200160002060030160006101000a8154816001600160a01b0302191690836001600160a01b031602179055506006604051611e76906143fd565b9081526020016040518091039020805480611e9357611e936144d0565b60019003818190600052602060002001600090559055508080611eb59061447a565b915050611d40565b503360009081526004602052604081206002018054859290611ee0908490614448565b909155506117a89350505050565b60008260036000600d604051611f039061440c565b9081526040805160209281900383019020546001600160a01b0316835290820192909252016000206003015411611f775760036000600d604051611f469061440c565b9081526040805160209281900383019020546001600160a01b03168352908201929092520160002060030154611f79565b825b9050600060026000600d604051611f8f9061440c565b9081526040805160209281900383019020546001600160a01b031683529082019290925201600020549050611fc4818361445b565b9250611fd883670de0b6b3a764000061445b565b9250823410156120215760405162461bcd60e51b8152602060048201526014602482015273496e73756666696369656e742062616c616e636560601b6044820152606401610890565b8160036000600d6040516120349061440c565b9081526040805160209281900383019020546001600160a01b031683529082019290925201600090812060030180549091906120719084906144bd565b9250508190555061209e836040518060400160405280600481526020016310d1505560e21b8152506125db565b60006120aa84346144bd565b11156120bd576120bd61133884346144bd565b60005b8281101561223d576000600160066040516120da9061440c565b908152604051908190036020019020546120f491906144bd565b336000908152600460205260409081902090519192506008916121179190614522565b908152602001604051809103902060066040516121339061440c565b908152602001604051809103902082815481106121525761215261441c565b600091825260208083209091015483546001810185559383529082209092019190915560405133916009916006906121899061440c565b908152602001604051809103902084815481106121a8576121a861441c565b9060005260206000200154815260200190815260200160002060030160006101000a8154816001600160a01b0302191690836001600160a01b0316021790555060066040516121f69061440c565b9081526020016040518091039020805480612213576122136144d0565b600190038181906000526020600020016000905590555080806122359061447a565b9150506120c0565b503360009081526004602052604081206002018054849290612260908490614448565b909155505050505050565b612273613eea565b61227b613eea565b6000546001600160a01b031633036122cc5760408051808201825260058082526427bbb732b960d91b60208084018290529285528351808501909452908352908201528160015b6020020152919050565b6001336000908152600460208190526040909120015460ff1660038111156122f6576122f6614276565b036123c357604080518082018252600381526226a0a760e91b60208083019190915290835233600090815260049091522080546123329061428c565b80601f016020809104026020016040519081016040528092919081815260200182805461235e9061428c565b80156123ab5780601f10612380576101008083540402835291602001916123ab565b820191906000526020600020905b81548152906001019060200180831161238e57829003601f168201915b5050505050816001600281106122c2576122c261441c565b60023360009081526003602081905260409091206004015460ff16908111156123ee576123ee614276565b036124285760408051808201825260038082526205355560ec1b60208084019190915291845233600090815291522080546123329061428c565b600033600090815260056020526040902060010154600160a01b900460ff16600381111561245857612458614276565b0361249457604080518082018252600381526243555360e81b60208083019190915290835233600090815260059091522080546123329061428c565b60408051808201825260038152622c2cad60e91b60208083019190915290835281518083019092526001808352606160f81b9183019190915282906122c2565b5090565b6060816000036124ff5750506040805180820190915260018152600360fc1b602082015290565b8160005b811561252957806125138161447a565b91506125229050600a836145c0565b9150612503565b60008167ffffffffffffffff81111561254457612544613f6a565b6040519080825280601f01601f19166020018201604052801561256e576020820181803683370190505b508593509050815b831561075d57612587600a856145d4565b612592906030614448565b60f81b8261259f836145e8565b925082815181106125b2576125b261441c565b60200101906001600160f81b031916908160001a9053506125d4600a856145c0565b9350612576565b6117a882600d836040516125ef91906143d1565b908152604051908190036020019020546001600160a01b03165b8060006126168482614448565b90506000826001600160a01b03168260405160006040518083038185875af1925050503d8060008114612665576040519150601f19603f3d011682016040523d82523d6000602084013e61266a565b606091505b5050905080610c465760405162461bcd60e51b81526020600482015260126024820152711d1c985b9cd858dd1a5bdb8819985a5b195960721b6044820152606401610890565b60005b8381101561279d576006826040516126cb91906143d1565b908152604080519182900360209081018320600f805482546001818101855560009485528585209091019190915560808601855290548086528584018881528686018a9052336060880152908352600990935292902083518155905190918201906127369082614311565b506040820151600282019061274b9082614311565b5060609190910151600390910180546001600160a01b0319166001600160a01b03909216919091179055600f80549060006127858361447a565b919050555080806127959061447a565b9150506126b3565b50505050565b6000600e6040516127b3906143ed565b90815260200160405180910390206001015490506000600e6040516127d790614598565b90815260200160405180910390206001015490506000600e6040516127fb906143ed565b908152604051908190036020018120549150600090600e9061281c90614598565b9081526020016040518091039020600001549050600060046000600d604051612844906143ed565b908152602001604051809103902060009054906101000a90046001600160a01b03166001600160a01b03166001600160a01b03168152602001908152602001600020600201549050600060046000600d6040516128a090614598565b9081526040805160209281900383019020546001600160a01b0316835290820192909252016000908120600201549150808784116128e0578391506128e4565b8791505b8683116128f25750816128f5565b50855b6000600d604051612905906145ff565b9081526040805160209281900383019020546001600160a01b03166000818152600393849052918220909201549192508080808a8c111561327f578760036000600d604051612953906145ff565b9081526040805160209281900383019020546001600160a01b03168352908201929092520160002060030154116129c75760036000600d604051612996906145ff565b9081526040805160209281900383019020546001600160a01b031683529082019290925201600020600301546129c9565b875b93506129d58c8561445b565b92506000600160066040516129e9906145ff565b90815260405190819003602001902054612a0391906144bd565b905088861115612bee57612a1789876144bd565b955060005b89811015612b8f57600d604051612a32906143ed565b908152604051908190036020018120546001600160a01b031690600990600090600690612a5e906145ff565b90815260200160405180910390208581548110612a7d57612a7d61441c565b9060005260206000200154815260200190815260200160002060030160006101000a8154816001600160a01b0302191690836001600160a01b031602179055506007604051612acb906143ed565b90815260200160405180910390206006604051612ae7906145ff565b90815260200160405180910390208381548110612b0657612b0661441c565b60009182526020808320909101548354600181018555938352912090910155604051600690612b34906145ff565b9081526020016040518091039020805480612b5157612b516144d0565b6001900381819060005260206000200160009055905560018210612b7d5781612b79816145e8565b9250505b80612b878161447a565b915050612a1c565b508860046000600d604051612ba3906143ed565b9081526040805160209281900383019020546001600160a01b03168352908201929092520160009081206003018054909190612be0908490614448565b90915550899350612dc09050565b60005b86811015612d6457600d604051612c07906143ed565b908152604051908190036020018120546001600160a01b031690600990600090600690612c33906145ff565b90815260200160405180910390208581548110612c5257612c5261441c565b9060005260206000200154815260200190815260200160002060030160006101000a8154816001600160a01b0302191690836001600160a01b031602179055506007604051612ca0906143ed565b90815260200160405180910390206006604051612cbc906145ff565b90815260200160405180910390208381548110612cdb57612cdb61441c565b60009182526020808320909101548354600181018555938352912090910155604051600690612d09906145ff565b9081526020016040518091039020805480612d2657612d266144d0565b6001900381819060005260206000200160009055905560018210612d525781612d4e816145e8565b9250505b80612d5c8161447a565b915050612bf1565b508560046000600d604051612d78906143ed565b9081526040805160209281900383019020546001600160a01b03168352908201929092520160009081206003018054909190612db5908490614448565b909155506000969350505b6001600160a01b038716600090815260036020819052604090912001869055851561323a578760036000600d604051612df8906145ff565b9081526040805160209281900383019020546001600160a01b031683529082019290925201600020600301541115612e3257879450612e73565b60036000600d604051612e44906145ff565b9081526040805160209281900383019020546001600160a01b0316835290820192909252016000206003015494505b612e7d8c8661445b565b93508786111561306857612e9188876144bd565b955060005b8881101561300957600d604051612eac90614598565b908152604051908190036020018120546001600160a01b031690600990600090600690612ed8906145ff565b90815260200160405180910390208581548110612ef757612ef761441c565b9060005260206000200154815260200190815260200160002060030160006101000a8154816001600160a01b0302191690836001600160a01b031602179055506007604051612f4590614598565b90815260200160405180910390206006604051612f61906145ff565b90815260200160405180910390208381548110612f8057612f8061441c565b60009182526020808320909101548354600181018555938352912090910155604051600690612fae906145ff565b9081526020016040518091039020805480612fcb57612fcb6144d0565b6001900381819060005260206000200160009055905560018210612ff75781612ff3816145e8565b9250505b806130018161447a565b915050612e96565b508760046000600d60405161301d90614598565b9081526040805160209281900383019020546001600160a01b0316835290820192909252016000908120600301805490919061305a908490614448565b9091555088925061323a9050565b60005b868110156131de57600d60405161308190614598565b908152604051908190036020018120546001600160a01b0316906009906000906006906130ad906145ff565b908152602001604051809103902085815481106130cc576130cc61441c565b9060005260206000200154815260200190815260200160002060030160006101000a8154816001600160a01b0302191690836001600160a01b03160217905550600760405161311a90614598565b90815260200160405180910390206006604051613136906145ff565b908152602001604051809103902083815481106131555761315561441c565b60009182526020808320909101548354600181018555938352912090910155604051600690613183906145ff565b90815260200160405180910390208054806131a0576131a06144d0565b60019003818190600052602060002001600090559055600182106131cc57816131c8816145e8565b9250505b806131d68161447a565b91505061306b565b508560046000600d6040516131f290614598565b9081526040805160209281900383019020546001600160a01b0316835290820192909252016000908120600301805490919061322f908490614448565b909155506000969250505b8560036000600d60405161324d906145ff565b9081526040805160209281900383019020546001600160a01b0316835290820192909252016000206003015550613bd7565b8660036000600d604051613292906145ff565b9081526040805160209281900383019020546001600160a01b03168352908201929092520160002060030154116133065760036000600d6040516132d5906145ff565b9081526040805160209281900383019020546001600160a01b03168352908201929092520160002060030154613308565b865b93506133148b8561445b565b9250600060016006604051613328906145ff565b9081526040519081900360200190205461334291906144bd565b90508786111561352d5761335688876144bd565b955060005b888110156134ce57600d60405161337190614598565b908152604051908190036020018120546001600160a01b03169060099060009060069061339d906145ff565b908152602001604051809103902085815481106133bc576133bc61441c565b9060005260206000200154815260200190815260200160002060030160006101000a8154816001600160a01b0302191690836001600160a01b03160217905550600760405161340a90614598565b90815260200160405180910390206006604051613426906145ff565b908152602001604051809103902083815481106134455761344561441c565b60009182526020808320909101548354600181018555938352912090910155604051600690613473906145ff565b9081526020016040518091039020805480613490576134906144d0565b60019003818190600052602060002001600090559055600182106134bc57816134b8816145e8565b9250505b806134c68161447a565b91505061335b565b508760046000600d6040516134e290614598565b9081526040805160209281900383019020546001600160a01b0316835290820192909252016000908120600301805490919061351f908490614448565b909155508892506136ff9050565b60005b868110156136a357600d60405161354690614598565b908152604051908190036020018120546001600160a01b031690600990600090600690613572906145ff565b908152602001604051809103902085815481106135915761359161441c565b9060005260206000200154815260200190815260200160002060030160006101000a8154816001600160a01b0302191690836001600160a01b0316021790555060076040516135df90614598565b908152602001604051809103902060066040516135fb906145ff565b9081526020016040518091039020838154811061361a5761361a61441c565b60009182526020808320909101548354600181018555938352912090910155604051600690613648906145ff565b9081526020016040518091039020805480613665576136656144d0565b6001900381819060005260206000200160009055905560018210613691578161368d816145e8565b9250505b8061369b8161447a565b915050613530565b508560046000600d6040516136b790614598565b9081526040805160209281900383019020546001600160a01b031683529082019290925201600090812060030180549091906136f4908490614448565b909155506000969250505b8560036000600d604051613712906145ff565b9081526040805160209281900383019020546001600160a01b031683529082019290925201600020600301558515613b96578860036000600d604051613757906145ff565b9081526040805160209281900383019020546001600160a01b03168352908201929092520160002060030154116137cb5760036000600d60405161379a906145ff565b9081526040805160209281900383019020546001600160a01b031683529082019290925201600020600301546137cd565b885b94506137d98d8661445b565b9350888611156139c4576137ed89876144bd565b955060005b8981101561396557600d604051613808906143ed565b908152604051908190036020018120546001600160a01b031690600990600090600690613834906145ff565b908152602001604051809103902085815481106138535761385361441c565b9060005260206000200154815260200190815260200160002060030160006101000a8154816001600160a01b0302191690836001600160a01b0316021790555060076040516138a1906143ed565b908152602001604051809103902060066040516138bd906145ff565b908152602001604051809103902083815481106138dc576138dc61441c565b6000918252602080832090910154835460018101855593835291209091015560405160069061390a906145ff565b9081526020016040518091039020805480613927576139276144d0565b6001900381819060005260206000200160009055905560018210613953578161394f816145e8565b9250505b8061395d8161447a565b9150506137f2565b508860046000600d604051613979906143ed565b9081526040805160209281900383019020546001600160a01b031683529082019290925201600090812060030180549091906139b6908490614448565b90915550899350613b969050565b60005b86811015613b3a57600d6040516139dd906143ed565b908152604051908190036020018120546001600160a01b031690600990600090600690613a09906145ff565b90815260200160405180910390208581548110613a2857613a2861441c565b9060005260206000200154815260200190815260200160002060030160006101000a8154816001600160a01b0302191690836001600160a01b031602179055506007604051613a76906143ed565b90815260200160405180910390206006604051613a92906145ff565b90815260200160405180910390208381548110613ab157613ab161441c565b60009182526020808320909101548354600181018555938352912090910155604051600690613adf906145ff565b9081526020016040518091039020805480613afc57613afc6144d0565b6001900381819060005260206000200160009055905560018210613b285781613b24816145e8565b9250505b80613b328161447a565b9150506139c7565b508560046000600d604051613b4e906143ed565b9081526040805160209281900383019020546001600160a01b03168352908201929092520160009081206003018054909190613b8b908490614448565b909155506000969350505b8560036000600d604051613ba9906145ff565b9081526040805160209281900383019020546001600160a01b03168352908201929092520160002060030155505b6000613be38c8361445b565b613bed8e8561445b565b613bf79190614448565b9050613c33613c0e82670de0b6b3a764000061445b565b60405180604001604052806007815260200166566564616e746160c81b8152506125db565b600083600e604051613c44906143ed565b908152602001604051809103902060010154613c6091906144bd565b1115613cd357613cd38d84600e604051613c79906143ed565b908152602001604051809103902060010154613c9591906144bd565b613c9f919061445b565b613cb190670de0b6b3a764000061445b565b604051806040016040528060048152602001635461746160e01b8152506125db565b600082600e604051613ce490614598565b908152602001604051809103902060010154613d0091906144bd565b1115613d7557613d758c83600e604051613d1990614598565b908152602001604051809103902060010154613d3591906144bd565b613d3f919061445b565b613d5190670de0b6b3a764000061445b565b604051806040016040528060068152602001654d617275746960d01b8152506125db565b505050505050505050505050505050565b60408051808201909152601b81527f546174612773206269642070726963652026207175616e7469747900000000006020820152601190613dc79082614311565b50613dee600e604051613dd9906143ed565b908152604051908190036020019020546124d8565b601290613dfb9082614311565b50613e24600e604051613e0d906143ed565b9081526020016040518091039020600101546124d8565b601390613e319082614311565b5060408051808201909152601d81527f4d61727574692773206269642070726963652026207175616e746974790000006020820152601490613e739082614311565b50613e85600e604051613dd990614598565b601590613e929082614311565b50613ea4600e604051613e0d90614598565b601690613eb19082614311565b50565b6040518060c001604052806006905b6060815260200190600190039081613ec35790505090565b50613eb1906006810190613f03565b6040805180820190915260608152600160208201613ec3565b808211156124d4576000613f178282613f20565b50600101613f03565b508054613f2c9061428c565b6000825580601f10613f3c575050565b601f016020900490600052602060002090810190613eb191905b808211156124d45760008155600101613f56565b634e487b7160e01b600052604160045260246000fd5b600082601f830112613f9157600080fd5b813567ffffffffffffffff80821115613fac57613fac613f6a565b604051601f8301601f19908116603f01168101908282118183101715613fd457613fd4613f6a565b81604052838152866020858801011115613fed57600080fd5b836020870160208301376000602085830101528094505050505092915050565b60006020828403121561401f57600080fd5b813567ffffffffffffffff81111561403657600080fd5b61404284828501613f80565b949350505050565b60005b8381101561406557818101518382015260200161404d565b50506000910152565b6000815180845261408681602086016020860161404a565b601f01601f19169290920160200192915050565b6020815260006140ad602083018461406e565b9392505050565b80356001600160a01b03811681146140cb57600080fd5b919050565b6000602082840312156140e257600080fd5b6140ad826140b4565b602080825260009060e0830183820185845b600681101561412c57601f1987850301835261411a84835161406e565b935091840191908401906001016140fd565b50919695505050505050565b60006020828403121561414a57600080fd5b5035919050565b6000806040838503121561416457600080fd5b61416d836140b4565b9150602083013567ffffffffffffffff81111561418957600080fd5b61419585828601613f80565b9150509250929050565b6000806000606084860312156141b457600080fd5b6141bd846140b4565b9250602084013567ffffffffffffffff808211156141da57600080fd5b6141e687838801613f80565b935060408601359150808211156141fc57600080fd5b5061420986828701613f80565b9150509250925092565b6000806040838503121561422657600080fd5b50508035926020909101359150565b60208082526000906060830183820185845b600281101561412c57601f1987850301835261426484835161406e565b93509184019190840190600101614247565b634e487b7160e01b600052602160045260246000fd5b600181811c908216806142a057607f821691505b6020821081036142c057634e487b7160e01b600052602260045260246000fd5b50919050565b601f82111561430c57600081815260208120601f850160051c810160208610156142ed5750805b601f850160051c820191505b81811015611465578281556001016142f9565b505050565b815167ffffffffffffffff81111561432b5761432b613f6a565b61433f81614339845461428c565b846142c6565b602080601f831160018114614374576000841561435c5750858301515b600019600386901b1c1916600185901b178555611465565b600085815260208120601f198616915b828110156143a357888601518255948401946001909101908401614384565b50858210156143c15787850151600019600388901b60f8161c191681555b5050505050600190811b01905550565b600082516143e381846020870161404a565b9190910192915050565b635461746160e01b815260040190565b6226a92360e91b815260030190565b6310d1505560e21b815260040190565b634e487b7160e01b600052603260045260246000fd5b634e487b7160e01b600052601160045260246000fd5b808201808211156108c4576108c4614432565b600081600019048311821515161561447557614475614432565b500290565b60006001820161448c5761448c614432565b5060010190565b60208082526010908201526f2737ba1026b0b73ab330b1ba3ab932b960811b604082015260600190565b818103818111156108c4576108c4614432565b634e487b7160e01b600052603160045260246000fd5b600083516144f881846020880161404a565b600160fd1b908301908152835161451681600184016020880161404a565b01600101949350505050565b60008083546145308161428c565b60018281168015614548576001811461455d5761458c565b60ff198416875282151583028701945061458c565b8760005260208060002060005b858110156145835781548a82015290840190820161456a565b50505082870194505b50929695505050505050565b654d617275746960d01b815260060190565b634e487b7160e01b600052601260045260246000fd5b6000826145cf576145cf6145aa565b500490565b6000826145e3576145e36145aa565b500690565b6000816145f7576145f7614432565b506000190190565b66566564616e746160c81b81526007019056fe43617220426f6479204f776e657273686970207665726966696564207375636365737366756c6c7954797265204f776e657273686970207665726966696564207375636365737366756c6c79436172206f776e657273686970207665726966696564207375636365737366756c6c79a2646970667358221220abc95959fbb8aa4a55fb8a878ddda85b0ffe95b9374cef93b6f78c39a770f25364736f6c63430008100033",
  "immutableReferences": {},
  "source": "// SPDX-License-Identifier: Unlicensed\npragma solidity >=0.4.22 <0.9.0;\n\ncontract SupplyChainManagement{\n\n   address public owner = msg.sender;\n   enum Roles{\n       CUS,\n       MAN,\n       SUP,\n       XYZ\n   }\n    struct Supplier{\n        string name;\n        address id;\n        string partType;\n        uint part_limit;       \n        Roles role;\n    }\n    struct Manufacturer{\n        string name;\n        address id;\n        uint tyre_limit;\n        uint body_limit;\n        Roles role;\n    }\n    struct Customer{\n        string name;\n        address id;\n        Roles role;\n    }\n    struct bid_tuple{\n        uint price;\n        uint quantity;\n        address id;\n    }\n    struct partType{\n         uint id;\n         string brand;\n         string part_type;\n         address owner;\n    }\n    struct product{\n        uint id;\n        string brand;\n        uint tyre_id;\n        uint body_id;\n        address owner;\n    }\n    mapping(address=>uint) private productPrice;\n    mapping(address=>uint) private partPrice;\n    mapping(address=>Supplier) private suppliers;\n    mapping(address=>Manufacturer) private manufacturers;\n    mapping(address=>Customer) private customers;\n    // mapping(address=>Supplier) public suppliers;\n    // mapping(address=>Manufacturer) public manufacturers;\n    // mapping(address=>Customer) public customers;\n    mapping(string=>uint[]) private s_shelf;\n    mapping(string=>uint[]) private m_shelf_body;\n    mapping(string=>uint[]) private m_shelf_tyre;\n    mapping(uint=>partType) private parts;\n    mapping(string=>uint[]) private product_shelf;\n    mapping(uint=>product) private products;\n    mapping(address=>uint) private carOwner;\n    mapping(string=>address) private name2Addr;\n    mapping(string=>bid_tuple) private bids;\n    uint pid=0;\n    function getRole() public view returns(string[2] memory){\n        string[2] memory response;\n        if(msg.sender==owner)\n        {\n            response[0]=\"Owner\";\n            response[1]=\"Owner\";\n            return response;\n        }\n        if(manufacturers[msg.sender].role == Roles.MAN)\n         {   \n            response[0]=\"MAN\";\n            response[1]=manufacturers[msg.sender].name;\n            return response;\n         }\n        else if(suppliers[msg.sender].role == Roles.SUP)\n         { \n            response[0]=\"SUP\";\n            response[1]=suppliers[msg.sender].name;\n            return response;\n         }\n        else if(customers[msg.sender].role == Roles.CUS)\n         { \n            response[0]=\"CUS\";\n            response[1]=customers[msg.sender].name;\n            return response;\n        }\n        else\n          {  \n               response[0]=\"XYZ\";\n            response[1]=\"a\";\n            return response;\n          }\n    }\n//Access Control\n    modifier isOwner() {\n        require(owner==msg.sender,\"Not Owner\");\n        _;\n\n    }\n    modifier isManufacturer(){\n        require(manufacturers[msg.sender].role == Roles.MAN,\"Not Manufacturer\"); \n        _;\n    }\n     modifier isSupplier(){\n        require(suppliers[msg.sender].role == Roles.SUP,\"Not Supplier\"); \n        _;\n    }\n    modifier isCustomer(){\n        require(customers[msg.sender].role == Roles.CUS,\"Not Customer\");\n        _;\n    }\n// \n\n//Add Actors \n    function addSupplier(address _account,string memory _name,string memory _partType) public isOwner{\n            Supplier memory tmp = Supplier(_name,_account,_partType,0,Roles.SUP);\n            suppliers[_account]=tmp;\n            name2Addr[_name] = _account;\n    }\n    function addManufacturer(address _account,string memory _name) public isOwner{\n            Manufacturer memory tmp = Manufacturer(_name,_account,0,0,Roles.MAN); \n            manufacturers[_account]=tmp;\n            name2Addr[_name] = _account;\n         }\n\n    function addCustomer(string memory _name) public\n    {\n        customers[msg.sender]=Customer(_name,msg.sender,Roles.CUS);\n        name2Addr[_name] = msg.sender;\n    }\n     function create_Parts(uint _limit,string memory _partType,string memory _name) internal{\n        for(uint i=0;i<_limit;i++)\n        {\n            s_shelf[_name].push(pid);\n            parts[pid]=partType(pid,_name,_partType, msg.sender);\n            pid++;\n        }\n    }\n    \n     function set_limit(uint _limit) public isSupplier{ \n        uint old_remaining = suppliers[msg.sender].part_limit;\n        suppliers[msg.sender].part_limit=_limit;\n        create_Parts(_limit - old_remaining,suppliers[msg.sender].partType,suppliers[msg.sender].name);\n    }\n\n   uint x;\n\n     function purchaseTyre(uint quantity)  public payable isManufacturer{\n        \n        uint total;    \n        if (keccak256(abi.encodePacked(manufacturers[msg.sender].name)) == keccak256(abi.encodePacked('Tata'))) {\n            \n            uint min = suppliers[name2Addr['MRF']].part_limit>quantity?quantity:suppliers[name2Addr['MRF']].part_limit;\n            uint cost = partPrice[name2Addr['MRF']];\n            total=min*cost;\n            uint value = msg.value;\n            total = total * (1 ether);\n            require(value >= total,\"Insufficient balance\");\n            suppliers[name2Addr['MRF']].part_limit-=min;\n            sendmoneytoName(total, 'MRF');\n            if(value - total > 0)\n                sendmoneytoAdd(value - total, msg.sender);\n            for(uint i=0;i<min;i++)\n            {\n                uint index = s_shelf['MRF'].length-1;\n                m_shelf_tyre[manufacturers[msg.sender].name].push(s_shelf['MRF'][index]);  \n                parts[s_shelf['MRF'][index]].owner=msg.sender; //Change Owner            \n                s_shelf['MRF'].pop();\n               \n            }\n            manufacturers[msg.sender].tyre_limit+=min;\n            \n        }\n        else{\n            uint min = suppliers[name2Addr['CEAT']].part_limit>quantity?quantity:suppliers[name2Addr['CEAT']].part_limit;\n            uint cost = partPrice[name2Addr['CEAT']];\n            total=min*cost;\n            total = total * (1 ether);\n            require(msg.value >= total,\"Insufficient balance\");\n            suppliers[name2Addr['CEAT']].part_limit-=min;\n            sendmoneytoName(total, 'CEAT');\n            if(msg.value - total > 0)\n                sendmoneytoAdd(msg.value - total, msg.sender);\n            for(uint i=0;i<min;i++)\n            {\n                uint index = s_shelf['CEAT'].length-1;\n                m_shelf_tyre[manufacturers[msg.sender].name].push(s_shelf['CEAT'][index]);\n                parts[s_shelf['CEAT'][index]].owner=msg.sender; //Change Owner     \n                s_shelf['CEAT'].pop();\n            }\n            manufacturers[msg.sender].tyre_limit+=min;\n        }\n       \n\n    }\n    \n    function place_bid(uint quantity,uint price) public payable isManufacturer{\n        require(bids[manufacturers[msg.sender].name].id==address(0));\n        require(msg.value >= quantity*price * (1 ether));\n        delete bid_val;\n        if(msg.value > quantity*price * (1 ether))\n        \tsendmoneytoAdd(msg.value - quantity*price * (1 ether) ,msg.sender);\n        x++;    \n        bids[manufacturers[msg.sender].name]=bid_tuple(price,quantity,msg.sender);\n        if(manufacturers[name2Addr['Tata']].tyre_limit>0 && manufacturers[name2Addr['Maruti']].tyre_limit>0 && x==2)\n            {ResourceAllocation();\n             showbidhelper();\n             delete bids['Tata'];\n             delete bids['Maruti'];\n             x=0;}\n    }\n    \n    string[6] bid_val;\n    \n    function showbidhelper() internal{\n    \n        bid_val[0]=\"Tata's bid price & quantity\";\n        bid_val[1]=uint2str(bids['Tata'].price);\n        bid_val[2]=uint2str(bids['Tata'].quantity);\n        bid_val[3]=\"Maruti's bid price & quantity\";\n        bid_val[4]=uint2str(bids['Maruti'].price);\n        bid_val[5]=uint2str(bids['Maruti'].quantity);\n\n    }\n    \n\n    function showbid() public view returns(string[6] memory){\n    \n        return bid_val;\n    }\n\n\n     function ResourceAllocation() internal\n     {\n        uint q1=bids['Tata'].quantity;\n        uint q2=bids['Maruti'].quantity;\n        uint p1=bids['Tata'].price;\n        uint p2=bids['Maruti'].price;\n\n        // Check real requirements.\n       \n        uint numTyres_Tata=manufacturers[name2Addr['Tata']].tyre_limit; \n        uint numTyres_Maruti=manufacturers[name2Addr['Maruti']].tyre_limit; \n        \n\n        // Optimal Distribution.\n        uint trueReqTata; \n        uint trueReqMaruti;\n        if(numTyres_Tata<=q1) \n            trueReqTata=numTyres_Tata;\n        else \n            trueReqTata=q1;\n\n        if(numTyres_Maruti<=q2) \n            trueReqMaruti=numTyres_Maruti;\n        else \n            trueReqMaruti=q2;\n\n\n        // Give to highest bidder\n        address supplierAddress = name2Addr[\"Vedanta\"];\n        uint availability = suppliers[supplierAddress].part_limit;\n\n        uint min;\n        uint total;\n\n        uint final_tata_alloc=0;\n        uint final_maruti_alloc=0;\n        if(p1>p2)\n        {   \n            min = suppliers[name2Addr['Vedanta']].part_limit>trueReqTata?trueReqTata:suppliers[name2Addr['Vedanta']].part_limit;\n            total=min*p1;\n            uint index = s_shelf['Vedanta'].length-1;\n            if(availability>trueReqTata)\n            {\n                availability-=trueReqTata;\n                for(uint i= 0;i<trueReqTata;i++)\n                {\n                    \n                    parts[s_shelf['Vedanta'][index]].owner = name2Addr['Tata'];\n                    m_shelf_body['Tata'].push(s_shelf['Vedanta'][index]);              \n                    s_shelf['Vedanta'].pop();\n                    if(index>=1) index--;\n                }\n                manufacturers[name2Addr['Tata']].body_limit+=trueReqTata;\n                final_tata_alloc=trueReqTata;\n            }\n            else{\n                for(uint i=0;i<availability;i++)\n                {\n                    parts[s_shelf['Vedanta'][index]].owner = name2Addr['Tata'];\n                    m_shelf_body['Tata'].push(s_shelf['Vedanta'][index]);              \n                    s_shelf['Vedanta'].pop();\n                    if(index>=1) index--;                      ///DOING IT HERE\n                }\n                manufacturers[name2Addr['Tata']].body_limit+=availability;\n                final_tata_alloc=availability;\n\n                availability=0;\n                \n            }\n            suppliers[supplierAddress].part_limit = availability;\n            if(availability>0)\n            {  \n\n                if(suppliers[name2Addr['Vedanta']].part_limit>trueReqMaruti)\n                 {min=trueReqMaruti;}\n                else {min=suppliers[name2Addr['Vedanta']].part_limit;}\n                total=min*p2;\n                if(availability>trueReqMaruti)\n                {\n                    availability-=trueReqMaruti;\n                    for(uint i=0;i<trueReqMaruti;i++)\n                    {\n                        parts[s_shelf['Vedanta'][index]].owner = name2Addr['Maruti'];\n                        m_shelf_body['Maruti'].push(s_shelf['Vedanta'][index]);              \n                        s_shelf['Vedanta'].pop();\n                        if(index>=1) index--;\n                    }\n                    manufacturers[name2Addr['Maruti']].body_limit+=trueReqMaruti;\n                    final_maruti_alloc=trueReqMaruti;\n                }\n                else{\n                    for(uint i=0;i<availability;i++)\n                    {\n                        parts[s_shelf['Vedanta'][index]].owner = name2Addr['Maruti'];\n                        m_shelf_body['Maruti'].push(s_shelf['Vedanta'][index]);              \n                        s_shelf['Vedanta'].pop();\n                        if(index>=1) index--;\n                    }\n                    manufacturers[name2Addr['Maruti']].body_limit+=availability;\n                    final_maruti_alloc=availability;\n                    availability=0;\n                }\n            }\n            suppliers[name2Addr['Vedanta']].part_limit = availability;\n        }\n        else{\n\n            min = suppliers[name2Addr['Vedanta']].part_limit>trueReqMaruti?trueReqMaruti:suppliers[name2Addr['Vedanta']].part_limit;\n            total=min*p2;\n            uint index = s_shelf['Vedanta'].length-1;\n            if(availability>trueReqMaruti)\n            {\n                availability-=trueReqMaruti;\n                for(uint i=0;i<trueReqMaruti;i++)\n                {\n                    parts[s_shelf['Vedanta'][index]].owner = name2Addr['Maruti'];\n                    m_shelf_body['Maruti'].push(s_shelf['Vedanta'][index]);              \n                    s_shelf['Vedanta'].pop();\n                    if(index>=1) index--;\n                }\n                manufacturers[name2Addr['Maruti']].body_limit+=trueReqMaruti;\n                final_maruti_alloc=trueReqMaruti;\n\n            }\n            else{\n                for(uint i=0;i<availability;i++)\n                {\n                    parts[s_shelf['Vedanta'][index]].owner = name2Addr['Maruti'];\n                    m_shelf_body['Maruti'].push(s_shelf['Vedanta'][index]);              \n                    s_shelf['Vedanta'].pop();\n                    if(index>=1) index--;\n                }\n                manufacturers[name2Addr['Maruti']].body_limit+=availability;\n                final_maruti_alloc=availability;\n                availability=0;\n            }\n            suppliers[name2Addr['Vedanta']].part_limit = availability;\n             if(availability>0)\n            {\n                min = suppliers[name2Addr['Vedanta']].part_limit>trueReqTata?trueReqTata:suppliers[name2Addr['Vedanta']].part_limit;\n                total=min*p1;\n                 if(availability>trueReqTata)\n                 {\n                    availability-=trueReqTata;\n                    for(uint i= 0;i<trueReqTata;i++)\n                    {\n                        parts[s_shelf['Vedanta'][index]].owner = name2Addr['Tata'];\n                        m_shelf_body['Tata'].push(s_shelf['Vedanta'][index]);              \n                        s_shelf['Vedanta'].pop();\n                        if(index>=1) index--;\n                    }\n                    manufacturers[name2Addr['Tata']].body_limit+=trueReqTata;\n                    final_tata_alloc=trueReqTata;\n                }\n                else{\n                    for(uint i=0;i<availability;i++)\n                    {\n                        parts[s_shelf['Vedanta'][index]].owner = name2Addr['Tata'];\n                        m_shelf_body['Tata'].push(s_shelf['Vedanta'][index]);              \n                        s_shelf['Vedanta'].pop();\n                        if(index>=1) index--;\n                    }\n                    manufacturers[name2Addr['Tata']].body_limit+=availability;\n                    final_tata_alloc=availability;\n                    availability=0;\n                }\n             }\n             suppliers[name2Addr['Vedanta']].part_limit = availability;\n        }\n        \n        \n        uint final_amount_to_vedanta = final_tata_alloc*p1 + final_maruti_alloc*p2;\n        sendmoneytoName(final_amount_to_vedanta* (1 ether), 'Vedanta');\n        if(bids['Tata'].quantity-final_tata_alloc > 0)\n            sendmoneytoName((bids['Tata'].quantity-final_tata_alloc) * p1 * (1 ether), 'Tata');\n        if(bids['Maruti'].quantity-final_maruti_alloc > 0)\n            sendmoneytoName((bids['Maruti'].quantity-final_maruti_alloc) * p2 * (1 ether), 'Maruti'); \n    } \n   \n    function makeProduct() public isManufacturer\n    {\n        string memory m_name = manufacturers[msg.sender].name;\n        uint noOfCars=manufacturers[msg.sender].tyre_limit>manufacturers[msg.sender].body_limit?manufacturers[msg.sender].body_limit:manufacturers[msg.sender].tyre_limit;\n        uint tid;\n        uint bid;\n       \n        for(uint i=0;i<noOfCars;i++)\n        {  \n            tid=m_shelf_tyre[m_name][m_shelf_tyre[m_name].length-1];\n            bid=m_shelf_body[m_name][m_shelf_body[m_name].length-1];\n            m_shelf_tyre[m_name].pop();\n            m_shelf_body[m_name].pop();\n            product_shelf[m_name].push(pid);\n            products[pid]=product(pid,m_name,tid,bid,msg.sender);\n            pid++;\n        }\n\n    }\n\n    function setCarPrice(uint _price) public isManufacturer{\n        productPrice[msg.sender]=_price;\n    }\n\n    function setPartPrice(uint price) public isSupplier{\n        partPrice[msg.sender]=price;\n    }\n\n    function getCarPrice(string memory brand) public view returns(string memory){\n        return uint2str(productPrice[name2Addr[brand]]);\n    }\n\n    function getPartPrice() public view returns(string memory){\n        address a = msg.sender;\n        string memory name = manufacturers[a].name;\n        if(keccak256(abi.encodePacked(name)) == keccak256(abi.encodePacked('Tata')))\n            return uint2str(partPrice[name2Addr['MRF']]);\n        else return uint2str(partPrice[name2Addr['CEAT']]);\n    }\n\n\n    function purchaseCar(string memory brand) public payable isCustomer{\n        uint cid; uint tid; uint bid;\n        uint price=productPrice[name2Addr[brand]] * (1 ether);\n        uint value = msg.value;\n        if(product_shelf[brand].length>0 && value >= price)\n            {sendmoneytoName(price, brand);\n             if (value-price>0)\n                sendmoneytoAdd(value-price, msg.sender);\n            \n            cid=product_shelf[brand][product_shelf[brand].length-1];\n            product_shelf[brand].pop();\n            carOwner[msg.sender]=cid;\n            products[cid].owner=msg.sender;\n            tid=products[cid].tyre_id;\n            bid=products[cid].body_id;\n            parts[tid].owner=msg.sender;\n            parts[bid].owner=msg.sender;\n            // return true;\n            }\n        else {\n            sendmoneytoAdd(msg.value, msg.sender);\n            // return false;\n            }    \n        }\n    \n   \n    function getcarID() public view returns(string memory){\n        return uint2str(carOwner[msg.sender]);\n    }\n    \n    \n    function verify(uint id) public view returns (string[6] memory){\n        string[6] memory  response;\n        if(products[id].owner==msg.sender){\n            response[0]=\"Car ownership verified successfully\";\n        }\n        else{\n            response[0]=\"Car ownership not verified\";\n        }\n        string memory a=products[id].brand;\n        string memory b=\"Car brand is\";\n        response[1]=string(abi.encodePacked(b,' ',a));\n        uint  tid=products[id].tyre_id;\n        uint  bid=products[id].body_id;\n        if(parts[tid].owner==msg.sender){\n            response[2]=\"Tyre Ownership verified successfully\";\n        }\n        else{\n            response[2]=\"Tyre Ownership not verified\";\n        }\n        a=parts[tid].brand;\n        b=\"Tyre brand is\";\n        response[3]=string(abi.encodePacked(b,' ',a));\n\n        if(parts[bid].owner==msg.sender){\n            response[4]=\"Car Body Ownership verified successfully\";\n        }\n        else{\n            response[4]=\"Car body ownership not verified\";\n        }\n        a=parts[bid].brand;\n        b=\"Car body brand is\";\n        response[5]=string(abi.encodePacked(b,' ',a));\n        return response;\n    }\n    \n        function uint2str(\n\t  uint256 _i\n\t)\n\t  internal\n\t  pure\n\t  returns (string memory str)\n\t{\n\t  if (_i == 0)\n\t  {\n\t    return \"0\";\n\t  }\n\t  uint256 j = _i;\n\t  uint256 length;\n\t  while (j != 0)\n\t  {\n\t    length++;\n\t    j /= 10;\n\t  }\n\t  bytes memory bstr = new bytes(length);\n\t  uint256 k = length;\n\t  j = _i;\n\t  while (j != 0)\n\t  {\n\t    bstr[--k] = bytes1(uint8(48 + j % 10));\n\t    j /= 10;\n\t  }\n\t  str = string(bstr);\n\t}\n\t\n\t\n    function addressToString(address _addr) public pure returns(string memory) {\n    bytes32 value = bytes32(uint256(uint160(_addr)));\n    bytes memory alphabet = \"0123456789abcdef\";\n\n    bytes memory str = new bytes(51);\n    str[0] = \"0\";\n    str[1] = \"x\";\n    for (uint i = 0; i < 20; i++) {\n        str[2+i*2] = alphabet[uint(uint8(value[i + 12] >> 4))];\n        str[3+i*2] = alphabet[uint(uint8(value[i + 12] & 0x0f))];\n    }\n    return string(str);\n}\n\n    function sendmoneytoAdd(uint amount,address payaddr) internal {\n        address payable manuf = payable(payaddr);\n        uint money;\n        money = money + amount ;\n        (bool sent,) = manuf.call{value:money}(\"\");\n        require(sent, \"transaction failed\");\n        \n    }\n\n    function sendmoneytoName(uint amount,string memory brand) internal{\n        sendmoneytoAdd(amount, name2Addr[brand]);\n    }\n\n\n}\n\n",
  "sourcePath": "F:\\BlockChain Project\\Polygon\\Polygon\\contracts\\SupplyChainManagement.sol",
  "compiler": {
    "name": "solc",
    "version": "0.8.16+commit.07a7930e.Emscripten.clang"
  },
  "schemaVersion": "3.4.8",
  "updatedAt": "2022-09-11T21:13:42.662Z",
  "networkType": "ethereum",
  "devdoc": {
    "kind": "dev",
    "methods": {},
    "version": 1
  },
  "userdoc": {
    "kind": "user",
    "methods": {},
    "version": 1
  }
}