{
  "contractName": "SupplyChainManagement",
  "abi": [
    {
      "inputs": [
        {
          "internalType": "address",
          "name": "_account",
          "type": "address"
        },
        {
          "internalType": "string",
          "name": "_name",
          "type": "string"
        },
        {
          "internalType": "string",
          "name": "_partType",
          "type": "string"
        }
      ],
      "name": "addSupplier",
      "outputs": [],
      "stateMutability": "nonpayable",
      "type": "function"
    },
    {
      "inputs": [
        {
          "internalType": "address",
          "name": "_account",
          "type": "address"
        },
        {
          "internalType": "string",
          "name": "_name",
          "type": "string"
        }
      ],
      "name": "addManufacturer",
      "outputs": [],
      "stateMutability": "nonpayable",
      "type": "function"
    },
    {
      "inputs": [
        {
          "internalType": "string",
          "name": "_name",
          "type": "string"
        }
      ],
      "name": "addCustomer",
      "outputs": [],
      "stateMutability": "nonpayable",
      "type": "function"
    },
    {
      "inputs": [
        {
          "internalType": "uint256",
          "name": "_limit",
          "type": "uint256"
        }
      ],
      "name": "set_limit",
      "outputs": [],
      "stateMutability": "nonpayable",
      "type": "function"
    },
    {
      "inputs": [
        {
          "internalType": "uint256",
          "name": "quantity",
          "type": "uint256"
        }
      ],
      "name": "purchaseTyre",
      "outputs": [],
      "stateMutability": "payable",
      "type": "function",
      "payable": true
    },
    {
      "inputs": [
        {
          "internalType": "uint256",
          "name": "quantity",
          "type": "uint256"
        },
        {
          "internalType": "uint256",
          "name": "price",
          "type": "uint256"
        }
      ],
      "name": "place_bid",
      "outputs": [],
      "stateMutability": "payable",
      "type": "function",
      "payable": true
    },
    {
      "inputs": [],
      "name": "showbid",
      "outputs": [
        {
          "internalType": "string[6]",
          "name": "",
          "type": "string[6]"
        }
      ],
      "stateMutability": "view",
      "type": "function",
      "constant": true
    },
    {
      "inputs": [],
      "name": "makeProduct",
      "outputs": [],
      "stateMutability": "nonpayable",
      "type": "function"
    },
    {
      "inputs": [
        {
          "internalType": "uint256",
          "name": "_price",
          "type": "uint256"
        }
      ],
      "name": "setCarPrice",
      "outputs": [],
      "stateMutability": "nonpayable",
      "type": "function"
    },
    {
      "inputs": [
        {
          "internalType": "uint256",
          "name": "price",
          "type": "uint256"
        }
      ],
      "name": "setPartPrice",
      "outputs": [],
      "stateMutability": "nonpayable",
      "type": "function"
    },
    {
      "inputs": [
        {
          "internalType": "string",
          "name": "brand",
          "type": "string"
        }
      ],
      "name": "getCarPrice",
      "outputs": [
        {
          "internalType": "string",
          "name": "",
          "type": "string"
        }
      ],
      "stateMutability": "view",
      "type": "function",
      "constant": true
    },
    {
      "inputs": [],
      "name": "getPartPrice",
      "outputs": [
        {
          "internalType": "string",
          "name": "",
          "type": "string"
        }
      ],
      "stateMutability": "view",
      "type": "function",
      "constant": true
    },
    {
      "inputs": [
        {
          "internalType": "string",
          "name": "brand",
          "type": "string"
        }
      ],
      "name": "purchaseCar",
      "outputs": [],
      "stateMutability": "payable",
      "type": "function",
      "payable": true
    },
    {
      "inputs": [],
      "name": "getcarID",
      "outputs": [
        {
          "internalType": "string",
          "name": "",
          "type": "string"
        }
      ],
      "stateMutability": "view",
      "type": "function",
      "constant": true
    },
    {
      "inputs": [
        {
          "internalType": "uint256",
          "name": "id",
          "type": "uint256"
        }
      ],
      "name": "verify",
      "outputs": [
        {
          "internalType": "string[6]",
          "name": "",
          "type": "string[6]"
        }
      ],
      "stateMutability": "view",
      "type": "function",
      "constant": true
    },
    {
      "inputs": [
        {
          "internalType": "address",
          "name": "_addr",
          "type": "address"
        }
      ],
      "name": "addressToString",
      "outputs": [
        {
          "internalType": "string",
          "name": "",
          "type": "string"
        }
      ],
      "stateMutability": "pure",
      "type": "function",
      "constant": true
    }
  ],
  "bytecode": "0x6080604052600080546001600160a01b03191633178155600f5534801561002557600080fd5b50614305806100356000396000f3fe6080604052600436106100f35760003560e01c80638753367f1161008a578063be02842611610059578063be02842614610264578063c4bdeb9914610284578063dd5aaf5514610297578063f60e61e7146102b757600080fd5b80638753367f146101f15780638a8e0a2e146102115780638c09e40914610231578063b5fabfda1461024457600080fd5b806362975cdf116100c657806362975cdf1461017a57806363b340d51461019c57806364813de8146101bc57806372e748a4146101dc57600080fd5b806303dd3d81146100f8578063067048331461011a57806320d749c9146101455780635e57966d1461015a575b600080fd5b34801561010457600080fd5b50610118610113366004613c9c565b6102ca565b005b34801561012657600080fd5b5061012f61039a565b60405161013c9190613d29565b60405180910390f35b34801561015157600080fd5b5061012f6104ea565b34801561016657600080fd5b5061012f610175366004613d5f565b61050b565b34801561018657600080fd5b5061018f6106f6565b60405161013c9190613d7a565b3480156101a857600080fd5b506101186101b7366004613dc7565b6107bd565b3480156101c857600080fd5b5061012f6101d7366004613c9c565b610837565b3480156101e857600080fd5b50610118610856565b3480156101fd57600080fd5b5061018f61020c366004613dc7565b610bd9565b34801561021d57600080fd5b5061011861022c366004613de0565b61104f565b61011861023f366004613c9c565b61119f565b34801561025057600080fd5b5061011861025f366004613e2e565b61138d565b34801561027057600080fd5b5061011861027f366004613dc7565b6114f9565b610118610292366004613ea2565b6116c1565b3480156102a357600080fd5b506101186102b2366004613dc7565b611984565b6101186102c5366004613dc7565b6119dd565b6040805160608101825282815233602082015290810160029052336000908152600560205260409020815181906103019082613f5f565b5060208201516001820180546001600160a01b039092166001600160a01b03198316811782556040850151926001600160a81b03191617600160a01b83600281111561034f5761034f613ec4565b021790555090505033600d82604051610368919061401f565b90815260405190819003602001902080546001600160a01b03929092166001600160a01b031990921691909117905550565b33600081815260046020526040812080546060939291906103ba90613eda565b80601f01602080910402602001604051908101604052809291908181526020018280546103e690613eda565b80156104335780601f1061040857610100808354040283529160200191610433565b820191906000526020600020905b81548152906001019060200180831161041657829003601f168201915b505050505090506040516020016104499061403b565b6040516020818303038152906040528051906020012081604051602001610470919061401f565b60405160208183030381529060405280519060200120036104d5576104ce60026000600d6040516104a09061404b565b9081526040805160209281900383019020546001600160a01b03168352908201929092520160002054612180565b9250505090565b6104ce60026000600d6040516104a09061405a565b336000908152600c602052604090205460609061050690612180565b905090565b604080518082018252601081526f181899199a1a9b1b9c1cb0b131b232b360811b60208201528151603380825260608281019094526001600160a01b0385169291600091602082018180368337019050509050600360fc1b816000815181106105765761057661406a565b60200101906001600160f81b031916908160001a905350600f60fb1b816001815181106105a5576105a561406a565b60200101906001600160f81b031916908160001a90535060005b60148110156106ed57826004856105d784600c614096565b602081106105e7576105e761406a565b1a60f81b6001600160f81b031916901c60f81c60ff168151811061060d5761060d61406a565b01602001516001600160f81b031916826106288360026140a9565b610633906002614096565b815181106106435761064361406a565b60200101906001600160f81b031916908160001a905350828461066783600c614096565b602081106106775761067761406a565b825191901a600f1690811061068e5761068e61406a565b01602001516001600160f81b031916826106a98360026140a9565b6106b4906003614096565b815181106106c4576106c461406a565b60200101906001600160f81b031916908160001a905350806106e5816140c8565b9150506105bf565b50949350505050565b6106fe613b5c565b6040805160c08101909152601160066000835b828210156107b457838201805461072790613eda565b80601f016020809104026020016040519081016040528092919081815260200182805461075390613eda565b80156107a05780601f10610775576101008083540402835291602001916107a0565b820191906000526020600020905b81548152906001019060200180831161078357829003601f168201915b505050505081526020019060010190610711565b50505050905090565b3360009081526003602052604081206004015460ff1660028111156107e4576107e4613ec4565b146108255760405162461bcd60e51b815260206004820152600c60248201526b2737ba1029bab8383634b2b960a11b60448201526064015b60405180910390fd5b33600090815260026020526040902055565b606061085060016000600d856040516104a0919061401f565b92915050565b6001336000908152600460208190526040909120015460ff16600281111561088057610880613ec4565b1461089d5760405162461bcd60e51b815260040161081c906140e1565b33600090815260046020526040812080546108b790613eda565b80601f01602080910402602001604051908101604052809291908181526020018280546108e390613eda565b80156109305780601f1061090557610100808354040283529160200191610930565b820191906000526020600020905b81548152906001019060200180831161091357829003601f168201915b5050336000908152600460205260408120600381015460029091015495965090941192506109739150505733600090815260046020526040902060020154610987565b336000908152600460205260409020600301545b905060008060005b83811015610bd2576008856040516109a7919061401f565b908152602001604051809103902060016008876040516109c7919061401f565b908152604051908190036020019020546109e1919061410b565b815481106109f1576109f161406a565b90600052602060002001549250600785604051610a0e919061401f565b90815260200160405180910390206001600787604051610a2e919061401f565b90815260405190819003602001902054610a48919061410b565b81548110610a5857610a5861406a565b90600052602060002001549150600885604051610a75919061401f565b9081526020016040518091039020805480610a9257610a9261411e565b60019003818190600052602060002001600090559055600785604051610ab8919061401f565b9081526020016040518091039020805480610ad557610ad561411e565b60019003818190600052602060002001600090559055600a85604051610afb919061401f565b908152604080519182900360209081018320600f805482546001818101855560009485528585209091019190915560a08601855290548086528584018b81528686018a905260608701899052336080880152908352600b9093529290208351815590519091820190610b6d9082613f5f565b506040820151600282015560608201516003820155608090910151600490910180546001600160a01b0319166001600160a01b03909216919091179055600f8054906000610bba836140c8565b91905055508080610bca906140c8565b91505061098f565b5050505050565b610be1613b5c565b610be9613b5c565b6000838152600b6020526040902060040154336001600160a01b0390911603610c2c576040518060600160405280602381526020016142ad602391398152610c63565b60408051808201909152601a81527f436172206f776e657273686970206e6f74207665726966696564000000000000602082015281525b6000838152600b602052604081206001018054610c7f90613eda565b80601f0160208091040260200160405190810160405280929190818152602001828054610cab90613eda565b8015610cf85780601f10610ccd57610100808354040283529160200191610cf8565b820191906000526020600020905b815481529060010190602001808311610cdb57829003601f168201915b5050505050905060006040518060400160405280600c81526020016b436172206272616e6420697360a01b81525090508082604051602001610d3b929190614134565b60408051808303601f190181529181526020808601929092526000878152600b835281812060028101546003918201548184526009909552929091200154909190336001600160a01b0390911603610db057604051806060016040528060248152602001614289602491396040860152610de8565b604080518082018252601b81527f54797265204f776e657273686970206e6f7420766572696669656400000000006020820152908601525b60008281526009602052604090206001018054610e0490613eda565b80601f0160208091040260200160405190810160405280929190818152602001828054610e3090613eda565b8015610e7d5780601f10610e5257610100808354040283529160200191610e7d565b820191906000526020600020905b815481529060010190602001808311610e6057829003601f168201915b505050505093506040518060400160405280600d81526020016c54797265206272616e6420697360981b81525092508284604051602001610ebf929190614134565b60408051808303601f190181529181526060870191909152600082815260096020522060030154336001600160a01b0390911603610f1a57604051806060016040528060288152602001614261602891396080860152610f54565b60408051808201909152601f81527f43617220626f6479206f776e657273686970206e6f7420766572696669656400602082015260808601525b60008181526009602052604090206001018054610f7090613eda565b80601f0160208091040260200160405190810160405280929190818152602001828054610f9c90613eda565b8015610fe95780601f10610fbe57610100808354040283529160200191610fe9565b820191906000526020600020905b815481529060010190602001808311610fcc57829003601f168201915b505050505093506040518060400160405280601181526020017043617220626f6479206272616e6420697360781b8152509250828460405160200161102f929190614134565b60408051808303601f1901815291905260a0860152509295945050505050565b6000546001600160a01b031633146110955760405162461bcd60e51b81526020600482015260096024820152682737ba1027bbb732b960b91b604482015260640161081c565b6040805160a0810182528281526001600160a01b0384166020808301829052600083850181905260608401819052600160808501529182526004905291909120815182919081906110e69082613f5f565b5060208201518160010160006101000a8154816001600160a01b0302191690836001600160a01b03160217905550604082015181600201556060820151816003015560808201518160040160006101000a81548160ff0219169083600281111561115257611152613ec4565b021790555090505082600d8360405161116b919061401f565b90815260405190819003602001902080546001600160a01b03929092166001600160a01b0319909216919091179055505050565b60008060008060016000600d876040516111b9919061401f565b9081526040805160209281900383019020546001600160a01b031683529082019290925201600020546111f490670de0b6b3a76400006140a9565b905060003490506000600a8760405161120d919061401f565b9081526040519081900360200190205411801561122a5750818110155b1561137b576112398287612283565b6000611245838361410b565b111561125e5761125e611258838361410b565b336122b1565b600a8660405161126e919061401f565b90815260200160405180910390206001600a8860405161128e919061401f565b908152604051908190036020019020546112a8919061410b565b815481106112b8576112b861406a565b90600052602060002001549450600a866040516112d5919061401f565b90815260200160405180910390208054806112f2576112f261411e565b60008281526020808220830160001990810183905590920190925533808352600c82526040808420899055888452600b83528084206004810180546001600160a01b031990811685179091556002820154600392830154818852600990965283872083018054831686179055858752929095200180549094169091179092559094509250611385565b61138534336122b1565b505050505050565b6000546001600160a01b031633146113d35760405162461bcd60e51b81526020600482015260096024820152682737ba1027bbb732b960b91b604482015260640161081c565b60006040518060a00160405280848152602001856001600160a01b03168152602001838152602001600081526020016000600281111561141557611415613ec4565b90526001600160a01b03851660009081526003602052604090208151919250829181906114429082613f5f565b5060208201516001820180546001600160a01b0319166001600160a01b039092169190911790556040820151600282019061147d9082613f5f565b5060608201516003820155608082015160048201805460ff191660018360028111156114ab576114ab613ec4565b021790555090505083600d846040516114c4919061401f565b90815260405190819003602001902080546001600160a01b03929092166001600160a01b031990921691909117905550505050565b3360009081526003602052604081206004015460ff16600281111561152057611520613ec4565b1461155c5760405162461bcd60e51b815260206004820152600c60248201526b2737ba1029bab8383634b2b960a11b604482015260640161081c565b336000908152600360208190526040909120018054908290556116bd611582828461410b565b336000908152600360205260409020600201805461159f90613eda565b80601f01602080910402602001604051908101604052809291908181526020018280546115cb90613eda565b80156116185780601f106115ed57610100808354040283529160200191611618565b820191906000526020600020905b8154815290600101906020018083116115fb57829003601f168201915b5050336000908152600360205260409020805490935061163a92509050613eda565b80601f016020809104026020016040519081016040528092919081815260200182805461166690613eda565b80156116b35780601f10611688576101008083540402835291602001916116b3565b820191906000526020600020905b81548152906001019060200180831161169657829003601f168201915b5050505050612358565b5050565b6001336000908152600460208190526040909120015460ff1660028111156116eb576116eb613ec4565b146117085760405162461bcd60e51b815260040161081c906140e1565b336000908152600460205260408082209051600e9161172691614170565b908152604051908190036020019020600201546001600160a01b03161461174c57600080fd5b61175681836140a9565b61176890670de0b6b3a76400006140a9565b34101561177457600080fd5b61178060116000613b83565b61178a81836140a9565b61179c90670de0b6b3a76400006140a9565b3411156117cc576117cc6117b082846140a9565b6117c290670de0b6b3a76400006140a9565b611258903461410b565b601080549060006117dc836140c8565b9091555050604080516060810182528281526020808201859052338284018190526000908152600490915282902091519091600e9161181b9190614170565b908152604080516020928190038301812084518155928401516001840155920151600290910180546001600160a01b0319166001600160a01b039092169190911790556000906004908290600d906118729061403b565b9081526040805160209281900383019020546001600160a01b031683529082019290925201600020600201541180156118e85750600060046000600d6040516118ba906141e6565b9081526040805160209281900383019020546001600160a01b03168352908201929092520160002060020154115b80156118f657506010546002145b156116bd5761190361244b565b61190b613a2e565b600e6040516119199061403b565b9081526040519081900360200181206000808255600182015560020180546001600160a01b0319169055600e9061194f906141e6565b908152604051908190036020019020600080825560018201819055600290910180546001600160a01b03191690556010555050565b6001336000908152600460208190526040909120015460ff1660028111156119ae576119ae613ec4565b146119cb5760405162461bcd60e51b815260040161081c906140e1565b33600090815260016020526040902055565b6001336000908152600460208190526040909120015460ff166002811115611a0757611a07613ec4565b14611a245760405162461bcd60e51b815260040161081c906140e1565b6000604051602001611a359061403b565b60408051601f19818403018152828252805160209182012033600090815260048352929092209192611a68929101614170565b6040516020818303038152906040528051906020012003611e035760008260036000600d604051611a989061404b565b9081526040805160209281900383019020546001600160a01b0316835290820192909252016000206003015411611b0c5760036000600d604051611adb9061404b565b9081526040805160209281900383019020546001600160a01b03168352908201929092520160002060030154611b0e565b825b9050600060026000600d604051611b249061404b565b9081526040805160209281900383019020546001600160a01b031683529082019290925201600020549050611b5981836140a9565b925034611b6e84670de0b6b3a76400006140a9565b935083811015611bb75760405162461bcd60e51b8152602060048201526014602482015273496e73756666696369656e742062616c616e636560601b604482015260640161081c565b8260036000600d604051611bca9061404b565b9081526040805160209281900383019020546001600160a01b03168352908201929092520160009081206003018054909190611c0790849061410b565b92505081905550611c33846040518060400160405280600381526020016226a92360e91b815250612283565b6000611c3f858361410b565b1115611c5257611c52611258858361410b565b60005b83811015611dd257600060016006604051611c6f9061404b565b90815260405190819003602001902054611c89919061410b565b33600090815260046020526040908190209051919250600891611cac9190614170565b90815260200160405180910390206006604051611cc89061404b565b90815260200160405180910390208281548110611ce757611ce761406a565b60009182526020808320909101548354600181018555938352908220909201919091556040513391600991600690611d1e9061404b565b90815260200160405180910390208481548110611d3d57611d3d61406a565b9060005260206000200154815260200190815260200160002060030160006101000a8154816001600160a01b0302191690836001600160a01b031602179055506006604051611d8b9061404b565b9081526020016040518091039020805480611da857611da861411e565b60019003818190600052602060002001600090559055508080611dca906140c8565b915050611c55565b503360009081526004602052604081206002018054859290611df5908490614096565b909155506116bd9350505050565b60008260036000600d604051611e189061405a565b9081526040805160209281900383019020546001600160a01b0316835290820192909252016000206003015411611e8c5760036000600d604051611e5b9061405a565b9081526040805160209281900383019020546001600160a01b03168352908201929092520160002060030154611e8e565b825b9050600060026000600d604051611ea49061405a565b9081526040805160209281900383019020546001600160a01b031683529082019290925201600020549050611ed981836140a9565b9250611eed83670de0b6b3a76400006140a9565b925082341015611f365760405162461bcd60e51b8152602060048201526014602482015273496e73756666696369656e742062616c616e636560601b604482015260640161081c565b8160036000600d604051611f499061405a565b9081526040805160209281900383019020546001600160a01b03168352908201929092520160009081206003018054909190611f8690849061410b565b92505081905550611fb3836040518060400160405280600481526020016310d1505560e21b815250612283565b6000611fbf843461410b565b1115611fd257611fd2611258843461410b565b60005b8281101561215257600060016006604051611fef9061405a565b90815260405190819003602001902054612009919061410b565b3360009081526004602052604090819020905191925060089161202c9190614170565b908152602001604051809103902060066040516120489061405a565b908152602001604051809103902082815481106120675761206761406a565b6000918252602080832090910154835460018101855593835290822090920191909155604051339160099160069061209e9061405a565b908152602001604051809103902084815481106120bd576120bd61406a565b9060005260206000200154815260200190815260200160002060030160006101000a8154816001600160a01b0302191690836001600160a01b03160217905550600660405161210b9061405a565b90815260200160405180910390208054806121285761212861411e565b6001900381819060005260206000200160009055905550808061214a906140c8565b915050611fd5565b503360009081526004602052604081206002018054849290612175908490614096565b909155505050505050565b6060816000036121a75750506040805180820190915260018152600360fc1b602082015290565b8160005b81156121d157806121bb816140c8565b91506121ca9050600a8361420e565b91506121ab565b60008167ffffffffffffffff8111156121ec576121ec613bf9565b6040519080825280601f01601f191660200182016040528015612216576020820181803683370190505b508593509050815b83156106ed5761222f600a85614222565b61223a906030614096565b60f81b8261224783614236565b9250828151811061225a5761225a61406a565b60200101906001600160f81b031916908160001a90535061227c600a8561420e565b935061221e565b6116bd82600d83604051612297919061401f565b908152604051908190036020019020546001600160a01b03165b8060006122be8482614096565b90506000826001600160a01b03168260405160006040518083038185875af1925050503d806000811461230d576040519150601f19603f3d011682016040523d82523d6000602084013e612312565b606091505b5050905080610bd25760405162461bcd60e51b81526020600482015260126024820152711d1c985b9cd858dd1a5bdb8819985a5b195960721b604482015260640161081c565b60005b8381101561244557600682604051612373919061401f565b908152604080519182900360209081018320600f805482546001818101855560009485528585209091019190915560808601855290548086528584018881528686018a9052336060880152908352600990935292902083518155905190918201906123de9082613f5f565b50604082015160028201906123f39082613f5f565b5060609190910151600390910180546001600160a01b0319166001600160a01b03909216919091179055600f805490600061242d836140c8565b9190505550808061243d906140c8565b91505061235b565b50505050565b6000600e60405161245b9061403b565b90815260200160405180910390206001015490506000600e60405161247f906141e6565b90815260200160405180910390206001015490506000600e6040516124a39061403b565b908152604051908190036020018120549150600090600e906124c4906141e6565b9081526020016040518091039020600001549050600060046000600d6040516124ec9061403b565b908152602001604051809103902060009054906101000a90046001600160a01b03166001600160a01b03166001600160a01b03168152602001908152602001600020600201549050600060046000600d604051612548906141e6565b9081526040805160209281900383019020546001600160a01b0316835290820192909252016000908120600201549150808784116125885783915061258c565b8791505b86831161259a57508161259d565b50855b6000600d6040516125ad9061424d565b9081526040805160209281900383019020546001600160a01b03166000818152600393849052918220909201549192508080808a8c1115612f27578760036000600d6040516125fb9061424d565b9081526040805160209281900383019020546001600160a01b031683529082019290925201600020600301541161266f5760036000600d60405161263e9061424d565b9081526040805160209281900383019020546001600160a01b03168352908201929092520160002060030154612671565b875b935061267d8c856140a9565b92506000600160066040516126919061424d565b908152604051908190036020019020546126ab919061410b565b905088861115612896576126bf898761410b565b955060005b8981101561283757600d6040516126da9061403b565b908152604051908190036020018120546001600160a01b0316906009906000906006906127069061424d565b908152602001604051809103902085815481106127255761272561406a565b9060005260206000200154815260200190815260200160002060030160006101000a8154816001600160a01b0302191690836001600160a01b0316021790555060076040516127739061403b565b9081526020016040518091039020600660405161278f9061424d565b908152602001604051809103902083815481106127ae576127ae61406a565b600091825260208083209091015483546001810185559383529120909101556040516006906127dc9061424d565b90815260200160405180910390208054806127f9576127f961411e565b6001900381819060005260206000200160009055905560018210612825578161282181614236565b9250505b8061282f816140c8565b9150506126c4565b508860046000600d60405161284b9061403b565b9081526040805160209281900383019020546001600160a01b03168352908201929092520160009081206003018054909190612888908490614096565b90915550899350612a689050565b60005b86811015612a0c57600d6040516128af9061403b565b908152604051908190036020018120546001600160a01b0316906009906000906006906128db9061424d565b908152602001604051809103902085815481106128fa576128fa61406a565b9060005260206000200154815260200190815260200160002060030160006101000a8154816001600160a01b0302191690836001600160a01b0316021790555060076040516129489061403b565b908152602001604051809103902060066040516129649061424d565b908152602001604051809103902083815481106129835761298361406a565b600091825260208083209091015483546001810185559383529120909101556040516006906129b19061424d565b90815260200160405180910390208054806129ce576129ce61411e565b60019003818190600052602060002001600090559055600182106129fa57816129f681614236565b9250505b80612a04816140c8565b915050612899565b508560046000600d604051612a209061403b565b9081526040805160209281900383019020546001600160a01b03168352908201929092520160009081206003018054909190612a5d908490614096565b909155506000969350505b6001600160a01b0387166000908152600360208190526040909120018690558515612ee2578760036000600d604051612aa09061424d565b9081526040805160209281900383019020546001600160a01b031683529082019290925201600020600301541115612ada57879450612b1b565b60036000600d604051612aec9061424d565b9081526040805160209281900383019020546001600160a01b0316835290820192909252016000206003015494505b612b258c866140a9565b935087861115612d1057612b39888761410b565b955060005b88811015612cb157600d604051612b54906141e6565b908152604051908190036020018120546001600160a01b031690600990600090600690612b809061424d565b90815260200160405180910390208581548110612b9f57612b9f61406a565b9060005260206000200154815260200190815260200160002060030160006101000a8154816001600160a01b0302191690836001600160a01b031602179055506007604051612bed906141e6565b90815260200160405180910390206006604051612c099061424d565b90815260200160405180910390208381548110612c2857612c2861406a565b60009182526020808320909101548354600181018555938352912090910155604051600690612c569061424d565b9081526020016040518091039020805480612c7357612c7361411e565b6001900381819060005260206000200160009055905560018210612c9f5781612c9b81614236565b9250505b80612ca9816140c8565b915050612b3e565b508760046000600d604051612cc5906141e6565b9081526040805160209281900383019020546001600160a01b03168352908201929092520160009081206003018054909190612d02908490614096565b90915550889250612ee29050565b60005b86811015612e8657600d604051612d29906141e6565b908152604051908190036020018120546001600160a01b031690600990600090600690612d559061424d565b90815260200160405180910390208581548110612d7457612d7461406a565b9060005260206000200154815260200190815260200160002060030160006101000a8154816001600160a01b0302191690836001600160a01b031602179055506007604051612dc2906141e6565b90815260200160405180910390206006604051612dde9061424d565b90815260200160405180910390208381548110612dfd57612dfd61406a565b60009182526020808320909101548354600181018555938352912090910155604051600690612e2b9061424d565b9081526020016040518091039020805480612e4857612e4861411e565b6001900381819060005260206000200160009055905560018210612e745781612e7081614236565b9250505b80612e7e816140c8565b915050612d13565b508560046000600d604051612e9a906141e6565b9081526040805160209281900383019020546001600160a01b03168352908201929092520160009081206003018054909190612ed7908490614096565b909155506000969250505b8560036000600d604051612ef59061424d565b9081526040805160209281900383019020546001600160a01b031683529082019290925201600020600301555061387f565b8660036000600d604051612f3a9061424d565b9081526040805160209281900383019020546001600160a01b0316835290820192909252016000206003015411612fae5760036000600d604051612f7d9061424d565b9081526040805160209281900383019020546001600160a01b03168352908201929092520160002060030154612fb0565b865b9350612fbc8b856140a9565b9250600060016006604051612fd09061424d565b90815260405190819003602001902054612fea919061410b565b9050878611156131d557612ffe888761410b565b955060005b8881101561317657600d604051613019906141e6565b908152604051908190036020018120546001600160a01b0316906009906000906006906130459061424d565b908152602001604051809103902085815481106130645761306461406a565b9060005260206000200154815260200190815260200160002060030160006101000a8154816001600160a01b0302191690836001600160a01b0316021790555060076040516130b2906141e6565b908152602001604051809103902060066040516130ce9061424d565b908152602001604051809103902083815481106130ed576130ed61406a565b6000918252602080832090910154835460018101855593835291209091015560405160069061311b9061424d565b90815260200160405180910390208054806131385761313861411e565b6001900381819060005260206000200160009055905560018210613164578161316081614236565b9250505b8061316e816140c8565b915050613003565b508760046000600d60405161318a906141e6565b9081526040805160209281900383019020546001600160a01b031683529082019290925201600090812060030180549091906131c7908490614096565b909155508892506133a79050565b60005b8681101561334b57600d6040516131ee906141e6565b908152604051908190036020018120546001600160a01b03169060099060009060069061321a9061424d565b908152602001604051809103902085815481106132395761323961406a565b9060005260206000200154815260200190815260200160002060030160006101000a8154816001600160a01b0302191690836001600160a01b031602179055506007604051613287906141e6565b908152602001604051809103902060066040516132a39061424d565b908152602001604051809103902083815481106132c2576132c261406a565b600091825260208083209091015483546001810185559383529120909101556040516006906132f09061424d565b908152602001604051809103902080548061330d5761330d61411e565b6001900381819060005260206000200160009055905560018210613339578161333581614236565b9250505b80613343816140c8565b9150506131d8565b508560046000600d60405161335f906141e6565b9081526040805160209281900383019020546001600160a01b0316835290820192909252016000908120600301805490919061339c908490614096565b909155506000969250505b8560036000600d6040516133ba9061424d565b9081526040805160209281900383019020546001600160a01b03168352908201929092520160002060030155851561383e578860036000600d6040516133ff9061424d565b9081526040805160209281900383019020546001600160a01b03168352908201929092520160002060030154116134735760036000600d6040516134429061424d565b9081526040805160209281900383019020546001600160a01b03168352908201929092520160002060030154613475565b885b94506134818d866140a9565b93508886111561366c57613495898761410b565b955060005b8981101561360d57600d6040516134b09061403b565b908152604051908190036020018120546001600160a01b0316906009906000906006906134dc9061424d565b908152602001604051809103902085815481106134fb576134fb61406a565b9060005260206000200154815260200190815260200160002060030160006101000a8154816001600160a01b0302191690836001600160a01b0316021790555060076040516135499061403b565b908152602001604051809103902060066040516135659061424d565b908152602001604051809103902083815481106135845761358461406a565b600091825260208083209091015483546001810185559383529120909101556040516006906135b29061424d565b90815260200160405180910390208054806135cf576135cf61411e565b60019003818190600052602060002001600090559055600182106135fb57816135f781614236565b9250505b80613605816140c8565b91505061349a565b508860046000600d6040516136219061403b565b9081526040805160209281900383019020546001600160a01b0316835290820192909252016000908120600301805490919061365e908490614096565b9091555089935061383e9050565b60005b868110156137e257600d6040516136859061403b565b908152604051908190036020018120546001600160a01b0316906009906000906006906136b19061424d565b908152602001604051809103902085815481106136d0576136d061406a565b9060005260206000200154815260200190815260200160002060030160006101000a8154816001600160a01b0302191690836001600160a01b03160217905550600760405161371e9061403b565b9081526020016040518091039020600660405161373a9061424d565b908152602001604051809103902083815481106137595761375961406a565b600091825260208083209091015483546001810185559383529120909101556040516006906137879061424d565b90815260200160405180910390208054806137a4576137a461411e565b60019003818190600052602060002001600090559055600182106137d057816137cc81614236565b9250505b806137da816140c8565b91505061366f565b508560046000600d6040516137f69061403b565b9081526040805160209281900383019020546001600160a01b03168352908201929092520160009081206003018054909190613833908490614096565b909155506000969350505b8560036000600d6040516138519061424d565b9081526040805160209281900383019020546001600160a01b03168352908201929092520160002060030155505b600061388b8c836140a9565b6138958e856140a9565b61389f9190614096565b90506138db6138b682670de0b6b3a76400006140a9565b60405180604001604052806007815260200166566564616e746160c81b815250612283565b600083600e6040516138ec9061403b565b908152602001604051809103902060010154613908919061410b565b111561397b5761397b8d84600e6040516139219061403b565b90815260200160405180910390206001015461393d919061410b565b61394791906140a9565b61395990670de0b6b3a76400006140a9565b604051806040016040528060048152602001635461746160e01b815250612283565b600082600e60405161398c906141e6565b9081526020016040518091039020600101546139a8919061410b565b1115613a1d57613a1d8c83600e6040516139c1906141e6565b9081526020016040518091039020600101546139dd919061410b565b6139e791906140a9565b6139f990670de0b6b3a76400006140a9565b604051806040016040528060068152602001654d617275746960d01b815250612283565b505050505050505050505050505050565b60408051808201909152601b81527f546174612773206269642070726963652026207175616e7469747900000000006020820152601190613a6f9082613f5f565b50613a96600e604051613a819061403b565b90815260405190819003602001902054612180565b601290613aa39082613f5f565b50613acc600e604051613ab59061403b565b908152602001604051809103902060010154612180565b601390613ad99082613f5f565b5060408051808201909152601d81527f4d61727574692773206269642070726963652026207175616e746974790000006020820152601490613b1b9082613f5f565b50613b2d600e604051613a81906141e6565b601590613b3a9082613f5f565b50613b4c600e604051613ab5906141e6565b601690613b599082613f5f565b50565b6040518060c001604052806006905b6060815260200190600190039081613b6b5790505090565b50613b599060068101905b80821115613bab576000613ba28282613baf565b50600101613b8e565b5090565b508054613bbb90613eda565b6000825580601f10613bcb575050565b601f016020900490600052602060002090810190613b5991905b80821115613bab5760008155600101613be5565b634e487b7160e01b600052604160045260246000fd5b600082601f830112613c2057600080fd5b813567ffffffffffffffff80821115613c3b57613c3b613bf9565b604051601f8301601f19908116603f01168101908282118183101715613c6357613c63613bf9565b81604052838152866020858801011115613c7c57600080fd5b836020870160208301376000602085830101528094505050505092915050565b600060208284031215613cae57600080fd5b813567ffffffffffffffff811115613cc557600080fd5b613cd184828501613c0f565b949350505050565b60005b83811015613cf4578181015183820152602001613cdc565b50506000910152565b60008151808452613d15816020860160208601613cd9565b601f01601f19169290920160200192915050565b602081526000613d3c6020830184613cfd565b9392505050565b80356001600160a01b0381168114613d5a57600080fd5b919050565b600060208284031215613d7157600080fd5b613d3c82613d43565b602080825260009060e0830183820185845b6006811015613dbb57601f19878503018352613da9848351613cfd565b93509184019190840190600101613d8c565b50919695505050505050565b600060208284031215613dd957600080fd5b5035919050565b60008060408385031215613df357600080fd5b613dfc83613d43565b9150602083013567ffffffffffffffff811115613e1857600080fd5b613e2485828601613c0f565b9150509250929050565b600080600060608486031215613e4357600080fd5b613e4c84613d43565b9250602084013567ffffffffffffffff80821115613e6957600080fd5b613e7587838801613c0f565b93506040860135915080821115613e8b57600080fd5b50613e9886828701613c0f565b9150509250925092565b60008060408385031215613eb557600080fd5b50508035926020909101359150565b634e487b7160e01b600052602160045260246000fd5b600181811c90821680613eee57607f821691505b602082108103613f0e57634e487b7160e01b600052602260045260246000fd5b50919050565b601f821115613f5a57600081815260208120601f850160051c81016020861015613f3b5750805b601f850160051c820191505b8181101561138557828155600101613f47565b505050565b815167ffffffffffffffff811115613f7957613f79613bf9565b613f8d81613f878454613eda565b84613f14565b602080601f831160018114613fc25760008415613faa5750858301515b600019600386901b1c1916600185901b178555611385565b600085815260208120601f198616915b82811015613ff157888601518255948401946001909101908401613fd2565b508582101561400f5787850151600019600388901b60f8161c191681555b5050505050600190811b01905550565b60008251614031818460208701613cd9565b9190910192915050565b635461746160e01b815260040190565b6226a92360e91b815260030190565b6310d1505560e21b815260040190565b634e487b7160e01b600052603260045260246000fd5b634e487b7160e01b600052601160045260246000fd5b8082018082111561085057610850614080565b60008160001904831182151516156140c3576140c3614080565b500290565b6000600182016140da576140da614080565b5060010190565b60208082526010908201526f2737ba1026b0b73ab330b1ba3ab932b960811b604082015260600190565b8181038181111561085057610850614080565b634e487b7160e01b600052603160045260246000fd5b60008351614146818460208801613cd9565b600160fd1b9083019081528351614164816001840160208801613cd9565b01600101949350505050565b600080835461417e81613eda565b6001828116801561419657600181146141ab576141da565b60ff19841687528215158302870194506141da565b8760005260208060002060005b858110156141d15781548a8201529084019082016141b8565b50505082870194505b50929695505050505050565b654d617275746960d01b815260060190565b634e487b7160e01b600052601260045260246000fd5b60008261421d5761421d6141f8565b500490565b600082614231576142316141f8565b500690565b60008161424557614245614080565b506000190190565b66566564616e746160c81b81526007019056fe43617220426f6479204f776e657273686970207665726966696564207375636365737366756c6c7954797265204f776e657273686970207665726966696564207375636365737366756c6c79436172206f776e657273686970207665726966696564207375636365737366756c6c79a26469706673582212202dbfd70150433d236661325c15e2e48b4243e97e8dea598e85b56e4f7289066f64736f6c63430008100033",
  "immutableReferences": {},
  "source": "// SPDX-License-Identifier: Unlicensed\npragma solidity >=0.4.22 <0.9.0;\n\ncontract SupplyChainManagement{\n\n   address owner = msg.sender;\n   enum Roles{\n       SUP,\n       MAN,\n       CUS\n   }\n    struct Supplier{\n        string name;\n        address id;\n        string partType;\n        uint part_limit;       \n        Roles role;\n    }\n    struct Manufacturer{\n        string name;\n        address id;\n        uint tyre_limit;\n        uint body_limit;\n        Roles role;\n    }\n    struct Customer{\n        string name;\n        address id;\n        Roles role;\n    }\n    struct bid_tuple{\n        uint price;\n        uint quantity;\n        address id;\n    }\n    struct partType{\n         uint id;\n         string brand;\n         string part_type;\n         address owner;\n    }\n    struct product{\n        uint id;\n        string brand;\n        uint tyre_id;\n        uint body_id;\n        address owner;\n    }\n    mapping(address=>uint) private productPrice;\n    mapping(address=>uint) private partPrice;\n    mapping(address=>Supplier) private suppliers;\n    mapping(address=>Manufacturer) private manufacturers;\n    mapping(address=>Customer) private customers;\n    mapping(string=>uint[]) private s_shelf;\n    mapping(string=>uint[]) private m_shelf_body;\n    mapping(string=>uint[]) private m_shelf_tyre;\n    mapping(uint=>partType) private parts;\n    mapping(string=>uint[]) private product_shelf;\n    mapping(uint=>product) private products;\n    mapping(address=>uint) private carOwner;\n    mapping(string=>address) private name2Addr;\n    mapping(string=>bid_tuple) private bids;\n    uint pid=0;\n\n//Access Control\n    modifier isOwner() {\n        require(owner==msg.sender,\"Not Owner\");\n        _;\n\n    }\n    modifier isManufacturer(){\n        require(manufacturers[msg.sender].role == Roles.MAN,\"Not Manufacturer\"); \n        _;\n    }\n     modifier isSupplier(){\n        require(suppliers[msg.sender].role == Roles.SUP,\"Not Supplier\"); \n        _;\n    }\n    modifier isCustomer(){\n        require(customers[msg.sender].role == Roles.CUS,\"Not Customer\");\n        _;\n    }\n// \n\n//Add Actors \n    function addSupplier(address _account,string memory _name,string memory _partType) public isOwner{\n            Supplier memory tmp = Supplier(_name,_account,_partType,0,Roles.SUP);\n            suppliers[_account]=tmp;\n            name2Addr[_name] = _account;\n    }\n    function addManufacturer(address _account,string memory _name) public isOwner{\n            Manufacturer memory tmp = Manufacturer(_name,_account,0,0,Roles.MAN); \n            manufacturers[_account]=tmp;\n            name2Addr[_name] = _account;\n         }\n\n    function addCustomer(string memory _name) public\n    {\n        customers[msg.sender]=Customer(_name,msg.sender,Roles.CUS);\n        name2Addr[_name] = msg.sender;\n    }\n     function create_Parts(uint _limit,string memory _partType,string memory _name) internal{\n        for(uint i=0;i<_limit;i++)\n        {\n            s_shelf[_name].push(pid);\n            parts[pid]=partType(pid,_name,_partType, msg.sender);\n            pid++;\n        }\n    }\n    \n     function set_limit(uint _limit) public isSupplier{ \n        uint old_remaining = suppliers[msg.sender].part_limit;\n        suppliers[msg.sender].part_limit=_limit;\n        create_Parts(_limit - old_remaining,suppliers[msg.sender].partType,suppliers[msg.sender].name);\n    }\n\n   uint x;\n\n     function purchaseTyre(uint quantity)  public payable isManufacturer{\n        \n        uint total;    \n        if (keccak256(abi.encodePacked(manufacturers[msg.sender].name)) == keccak256(abi.encodePacked('Tata'))) {\n            \n            uint min = suppliers[name2Addr['MRF']].part_limit>quantity?quantity:suppliers[name2Addr['MRF']].part_limit;\n            uint cost = partPrice[name2Addr['MRF']];\n            total=min*cost;\n            uint value = msg.value;\n            total = total * (1 ether);\n            require(value >= total,\"Insufficient balance\");\n            suppliers[name2Addr['MRF']].part_limit-=min;\n            sendmoneytoName(total, 'MRF');\n            if(value - total > 0)\n                sendmoneytoAdd(value - total, msg.sender);\n            for(uint i=0;i<min;i++)\n            {\n                uint index = s_shelf['MRF'].length-1;\n                m_shelf_tyre[manufacturers[msg.sender].name].push(s_shelf['MRF'][index]);  \n                parts[s_shelf['MRF'][index]].owner=msg.sender; //Change Owner            \n                s_shelf['MRF'].pop();\n               \n            }\n            manufacturers[msg.sender].tyre_limit+=min;\n            \n        }\n        else{\n            uint min = suppliers[name2Addr['CEAT']].part_limit>quantity?quantity:suppliers[name2Addr['CEAT']].part_limit;\n            uint cost = partPrice[name2Addr['CEAT']];\n            total=min*cost;\n            total = total * (1 ether);\n            require(msg.value >= total,\"Insufficient balance\");\n            suppliers[name2Addr['CEAT']].part_limit-=min;\n            sendmoneytoName(total, 'CEAT');\n            if(msg.value - total > 0)\n                sendmoneytoAdd(msg.value - total, msg.sender);\n            for(uint i=0;i<min;i++)\n            {\n                uint index = s_shelf['CEAT'].length-1;\n                m_shelf_tyre[manufacturers[msg.sender].name].push(s_shelf['CEAT'][index]);\n                parts[s_shelf['CEAT'][index]].owner=msg.sender; //Change Owner     \n                s_shelf['CEAT'].pop();\n            }\n            manufacturers[msg.sender].tyre_limit+=min;\n        }\n       \n\n    }\n    \n    function place_bid(uint quantity,uint price) public payable isManufacturer{\n        require(bids[manufacturers[msg.sender].name].id==address(0));\n        require(msg.value >= quantity*price * (1 ether));\n        delete bid_val;\n        if(msg.value > quantity*price * (1 ether))\n        \tsendmoneytoAdd(msg.value - quantity*price * (1 ether) ,msg.sender);\n        x++;    \n        bids[manufacturers[msg.sender].name]=bid_tuple(price,quantity,msg.sender);\n        if(manufacturers[name2Addr['Tata']].tyre_limit>0 && manufacturers[name2Addr['Maruti']].tyre_limit>0 && x==2)\n            {ResourceAllocation();\n             showbidhelper();\n             delete bids['Tata'];\n             delete bids['Maruti'];\n             x=0;}\n    }\n    \n    string[6] bid_val;\n    \n    function showbidhelper() internal{\n    \n        bid_val[0]=\"Tata's bid price & quantity\";\n        bid_val[1]=uint2str(bids['Tata'].price);\n        bid_val[2]=uint2str(bids['Tata'].quantity);\n        bid_val[3]=\"Maruti's bid price & quantity\";\n        bid_val[4]=uint2str(bids['Maruti'].price);\n        bid_val[5]=uint2str(bids['Maruti'].quantity);\n\n    }\n    \n\n    function showbid() public view returns(string[6] memory){\n    \n        return bid_val;\n    }\n\n\n     function ResourceAllocation() internal\n     {\n        uint q1=bids['Tata'].quantity;\n        uint q2=bids['Maruti'].quantity;\n        uint p1=bids['Tata'].price;\n        uint p2=bids['Maruti'].price;\n\n        // Check real requirements.\n       \n        uint numTyres_Tata=manufacturers[name2Addr['Tata']].tyre_limit; \n        uint numTyres_Maruti=manufacturers[name2Addr['Maruti']].tyre_limit; \n        \n\n        // Optimal Distribution.\n        uint trueReqTata; \n        uint trueReqMaruti;\n        if(numTyres_Tata<=q1) \n            trueReqTata=numTyres_Tata;\n        else \n            trueReqTata=q1;\n\n        if(numTyres_Maruti<=q2) \n            trueReqMaruti=numTyres_Maruti;\n        else \n            trueReqMaruti=q2;\n\n\n        // Give to highest bidder\n        address supplierAddress = name2Addr[\"Vedanta\"];\n        uint availability = suppliers[supplierAddress].part_limit;\n\n        uint min;\n        uint total;\n\n        uint final_tata_alloc=0;\n        uint final_maruti_alloc=0;\n        if(p1>p2)\n        {   \n            min = suppliers[name2Addr['Vedanta']].part_limit>trueReqTata?trueReqTata:suppliers[name2Addr['Vedanta']].part_limit;\n            total=min*p1;\n            uint index = s_shelf['Vedanta'].length-1;\n            if(availability>trueReqTata)\n            {\n                availability-=trueReqTata;\n                for(uint i= 0;i<trueReqTata;i++)\n                {\n                    \n                    parts[s_shelf['Vedanta'][index]].owner = name2Addr['Tata'];\n                    m_shelf_body['Tata'].push(s_shelf['Vedanta'][index]);              \n                    s_shelf['Vedanta'].pop();\n                    if(index>=1) index--;\n                }\n                manufacturers[name2Addr['Tata']].body_limit+=trueReqTata;\n                final_tata_alloc=trueReqTata;\n            }\n            else{\n                for(uint i=0;i<availability;i++)\n                {\n                    parts[s_shelf['Vedanta'][index]].owner = name2Addr['Tata'];\n                    m_shelf_body['Tata'].push(s_shelf['Vedanta'][index]);              \n                    s_shelf['Vedanta'].pop();\n                    if(index>=1) index--;                      ///DOING IT HERE\n                }\n                manufacturers[name2Addr['Tata']].body_limit+=availability;\n                final_tata_alloc=availability;\n\n                availability=0;\n                \n            }\n            suppliers[supplierAddress].part_limit = availability;\n            if(availability>0)\n            {  \n\n                if(suppliers[name2Addr['Vedanta']].part_limit>trueReqMaruti)\n                 {min=trueReqMaruti;}\n                else {min=suppliers[name2Addr['Vedanta']].part_limit;}\n                total=min*p2;\n                if(availability>trueReqMaruti)\n                {\n                    availability-=trueReqMaruti;\n                    for(uint i=0;i<trueReqMaruti;i++)\n                    {\n                        parts[s_shelf['Vedanta'][index]].owner = name2Addr['Maruti'];\n                        m_shelf_body['Maruti'].push(s_shelf['Vedanta'][index]);              \n                        s_shelf['Vedanta'].pop();\n                        if(index>=1) index--;\n                    }\n                    manufacturers[name2Addr['Maruti']].body_limit+=trueReqMaruti;\n                    final_maruti_alloc=trueReqMaruti;\n                }\n                else{\n                    for(uint i=0;i<availability;i++)\n                    {\n                        parts[s_shelf['Vedanta'][index]].owner = name2Addr['Maruti'];\n                        m_shelf_body['Maruti'].push(s_shelf['Vedanta'][index]);              \n                        s_shelf['Vedanta'].pop();\n                        if(index>=1) index--;\n                    }\n                    manufacturers[name2Addr['Maruti']].body_limit+=availability;\n                    final_maruti_alloc=availability;\n                    availability=0;\n                }\n            }\n            suppliers[name2Addr['Vedanta']].part_limit = availability;\n        }\n        else{\n\n            min = suppliers[name2Addr['Vedanta']].part_limit>trueReqMaruti?trueReqMaruti:suppliers[name2Addr['Vedanta']].part_limit;\n            total=min*p2;\n            uint index = s_shelf['Vedanta'].length-1;\n            if(availability>trueReqMaruti)\n            {\n                availability-=trueReqMaruti;\n                for(uint i=0;i<trueReqMaruti;i++)\n                {\n                    parts[s_shelf['Vedanta'][index]].owner = name2Addr['Maruti'];\n                    m_shelf_body['Maruti'].push(s_shelf['Vedanta'][index]);              \n                    s_shelf['Vedanta'].pop();\n                    if(index>=1) index--;\n                }\n                manufacturers[name2Addr['Maruti']].body_limit+=trueReqMaruti;\n                final_maruti_alloc=trueReqMaruti;\n\n            }\n            else{\n                for(uint i=0;i<availability;i++)\n                {\n                    parts[s_shelf['Vedanta'][index]].owner = name2Addr['Maruti'];\n                    m_shelf_body['Maruti'].push(s_shelf['Vedanta'][index]);              \n                    s_shelf['Vedanta'].pop();\n                    if(index>=1) index--;\n                }\n                manufacturers[name2Addr['Maruti']].body_limit+=availability;\n                final_maruti_alloc=availability;\n                availability=0;\n            }\n            suppliers[name2Addr['Vedanta']].part_limit = availability;\n             if(availability>0)\n            {\n                min = suppliers[name2Addr['Vedanta']].part_limit>trueReqTata?trueReqTata:suppliers[name2Addr['Vedanta']].part_limit;\n                total=min*p1;\n                 if(availability>trueReqTata)\n                 {\n                    availability-=trueReqTata;\n                    for(uint i= 0;i<trueReqTata;i++)\n                    {\n                        parts[s_shelf['Vedanta'][index]].owner = name2Addr['Tata'];\n                        m_shelf_body['Tata'].push(s_shelf['Vedanta'][index]);              \n                        s_shelf['Vedanta'].pop();\n                        if(index>=1) index--;\n                    }\n                    manufacturers[name2Addr['Tata']].body_limit+=trueReqTata;\n                    final_tata_alloc=trueReqTata;\n                }\n                else{\n                    for(uint i=0;i<availability;i++)\n                    {\n                        parts[s_shelf['Vedanta'][index]].owner = name2Addr['Tata'];\n                        m_shelf_body['Tata'].push(s_shelf['Vedanta'][index]);              \n                        s_shelf['Vedanta'].pop();\n                        if(index>=1) index--;\n                    }\n                    manufacturers[name2Addr['Tata']].body_limit+=availability;\n                    final_tata_alloc=availability;\n                    availability=0;\n                }\n             }\n             suppliers[name2Addr['Vedanta']].part_limit = availability;\n        }\n        \n        \n        uint final_amount_to_vedanta = final_tata_alloc*p1 + final_maruti_alloc*p2;\n        sendmoneytoName(final_amount_to_vedanta* (1 ether), 'Vedanta');\n        if(bids['Tata'].quantity-final_tata_alloc > 0)\n            sendmoneytoName((bids['Tata'].quantity-final_tata_alloc) * p1 * (1 ether), 'Tata');\n        if(bids['Maruti'].quantity-final_maruti_alloc > 0)\n            sendmoneytoName((bids['Maruti'].quantity-final_maruti_alloc) * p2 * (1 ether), 'Maruti'); \n    } \n   \n    function makeProduct() public isManufacturer\n    {\n        string memory m_name = manufacturers[msg.sender].name;\n        uint noOfCars=manufacturers[msg.sender].tyre_limit>manufacturers[msg.sender].body_limit?manufacturers[msg.sender].body_limit:manufacturers[msg.sender].tyre_limit;\n        uint tid;\n        uint bid;\n       \n        for(uint i=0;i<noOfCars;i++)\n        {  \n            tid=m_shelf_tyre[m_name][m_shelf_tyre[m_name].length-1];\n            bid=m_shelf_body[m_name][m_shelf_body[m_name].length-1];\n            m_shelf_tyre[m_name].pop();\n            m_shelf_body[m_name].pop();\n            product_shelf[m_name].push(pid);\n            products[pid]=product(pid,m_name,tid,bid,msg.sender);\n            pid++;\n        }\n\n    }\n\n    function setCarPrice(uint _price) public isManufacturer{\n        productPrice[msg.sender]=_price;\n    }\n\n    function setPartPrice(uint price) public isSupplier{\n        partPrice[msg.sender]=price;\n    }\n\n    function getCarPrice(string memory brand) public view returns(string memory){\n        return uint2str(productPrice[name2Addr[brand]]);\n    }\n\n    function getPartPrice() public view returns(string memory){\n        address a = msg.sender;\n        string memory name = manufacturers[a].name;\n        if(keccak256(abi.encodePacked(name)) == keccak256(abi.encodePacked('Tata')))\n            return uint2str(partPrice[name2Addr['MRF']]);\n        else return uint2str(partPrice[name2Addr['CEAT']]);\n    }\n\n\n    function purchaseCar(string memory brand) public payable{\n        uint cid; uint tid; uint bid;\n        uint price=productPrice[name2Addr[brand]] * (1 ether);\n        uint value = msg.value;\n        if(product_shelf[brand].length>0 && value >= price)\n            {sendmoneytoName(price, brand);\n             if (value-price>0)\n                sendmoneytoAdd(value-price, msg.sender);\n            \n            cid=product_shelf[brand][product_shelf[brand].length-1];\n            product_shelf[brand].pop();\n            carOwner[msg.sender]=cid;\n            products[cid].owner=msg.sender;\n            tid=products[cid].tyre_id;\n            bid=products[cid].body_id;\n            parts[tid].owner=msg.sender;\n            parts[bid].owner=msg.sender;\n            }\n        else {sendmoneytoAdd(msg.value, msg.sender);}    \n        }\n    \n   \n    function getcarID() public view returns(string memory){\n        return uint2str(carOwner[msg.sender]);\n    }\n    \n    \n    function verify(uint id) public view returns (string[6] memory){\n        string[6] memory  response;\n        if(products[id].owner==msg.sender){\n            response[0]=\"Car ownership verified successfully\";\n        }\n        else{\n            response[0]=\"Car ownership not verified\";\n        }\n        string memory a=products[id].brand;\n        string memory b=\"Car brand is\";\n        response[1]=string(abi.encodePacked(b,' ',a));\n        uint  tid=products[id].tyre_id;\n        uint  bid=products[id].body_id;\n        if(parts[tid].owner==msg.sender){\n            response[2]=\"Tyre Ownership verified successfully\";\n        }\n        else{\n            response[2]=\"Tyre Ownership not verified\";\n        }\n        a=parts[tid].brand;\n        b=\"Tyre brand is\";\n        response[3]=string(abi.encodePacked(b,' ',a));\n\n        if(parts[bid].owner==msg.sender){\n            response[4]=\"Car Body Ownership verified successfully\";\n        }\n        else{\n            response[4]=\"Car body ownership not verified\";\n        }\n        a=parts[bid].brand;\n        b=\"Car body brand is\";\n        response[5]=string(abi.encodePacked(b,' ',a));\n        return response;\n    }\n    \n        function uint2str(\n\t  uint256 _i\n\t)\n\t  internal\n\t  pure\n\t  returns (string memory str)\n\t{\n\t  if (_i == 0)\n\t  {\n\t    return \"0\";\n\t  }\n\t  uint256 j = _i;\n\t  uint256 length;\n\t  while (j != 0)\n\t  {\n\t    length++;\n\t    j /= 10;\n\t  }\n\t  bytes memory bstr = new bytes(length);\n\t  uint256 k = length;\n\t  j = _i;\n\t  while (j != 0)\n\t  {\n\t    bstr[--k] = bytes1(uint8(48 + j % 10));\n\t    j /= 10;\n\t  }\n\t  str = string(bstr);\n\t}\n\t\n\t\n    function addressToString(address _addr) public pure returns(string memory) {\n    bytes32 value = bytes32(uint256(uint160(_addr)));\n    bytes memory alphabet = \"0123456789abcdef\";\n\n    bytes memory str = new bytes(51);\n    str[0] = \"0\";\n    str[1] = \"x\";\n    for (uint i = 0; i < 20; i++) {\n        str[2+i*2] = alphabet[uint(uint8(value[i + 12] >> 4))];\n        str[3+i*2] = alphabet[uint(uint8(value[i + 12] & 0x0f))];\n    }\n    return string(str);\n}\n\n    function sendmoneytoAdd(uint amount,address payaddr) internal {\n        address payable manuf = payable(payaddr);\n        uint money;\n        money = money + amount ;\n        (bool sent,) = manuf.call{value:money}(\"\");\n        require(sent, \"transaction failed\");\n        \n    }\n\n    function sendmoneytoName(uint amount,string memory brand) internal{\n        sendmoneytoAdd(amount, name2Addr[brand]);\n    }\n\n\n}\n\n",
  "sourcePath": "F:\\BlockChain Project\\Polygon\\Polygon\\contracts\\SupplyChainManagement.sol",
  "compiler": {
    "name": "solc",
    "version": "0.8.16+commit.07a7930e.Emscripten.clang"
  },
  "schemaVersion": "3.4.8",
  "updatedAt": "2022-09-08T15:31:02.780Z",
  "networkType": "ethereum",
  "devdoc": {
    "kind": "dev",
    "methods": {},
    "version": 1
  },
  "userdoc": {
    "kind": "user",
    "methods": {},
    "version": 1
  }
}